{
  "address": "0x9c84B2A37A538a4E3FF237f37Fb340D53ab1d7c2",
  "abi": [
    {
      "inputs": [],
      "stateMutability": "nonpayable",
      "type": "constructor"
    },
    {
      "anonymous": false,
      "inputs": [
        {
          "indexed": true,
          "internalType": "address",
          "name": "owner",
          "type": "address"
        },
        {
          "indexed": true,
          "internalType": "address",
          "name": "approved",
          "type": "address"
        },
        {
          "indexed": true,
          "internalType": "uint256",
          "name": "tokenId",
          "type": "uint256"
        }
      ],
      "name": "Approval",
      "type": "event"
    },
    {
      "anonymous": false,
      "inputs": [
        {
          "indexed": true,
          "internalType": "address",
          "name": "owner",
          "type": "address"
        },
        {
          "indexed": true,
          "internalType": "address",
          "name": "operator",
          "type": "address"
        },
        {
          "indexed": false,
          "internalType": "bool",
          "name": "approved",
          "type": "bool"
        }
      ],
      "name": "ApprovalForAll",
      "type": "event"
    },
    {
      "anonymous": false,
      "inputs": [
        {
          "indexed": true,
          "internalType": "address",
          "name": "previousOwner",
          "type": "address"
        },
        {
          "indexed": true,
          "internalType": "address",
          "name": "newOwner",
          "type": "address"
        }
      ],
      "name": "OwnershipTransferred",
      "type": "event"
    },
    {
      "anonymous": false,
      "inputs": [
        {
          "indexed": true,
          "internalType": "address",
          "name": "from",
          "type": "address"
        },
        {
          "indexed": true,
          "internalType": "address",
          "name": "to",
          "type": "address"
        },
        {
          "indexed": true,
          "internalType": "uint256",
          "name": "tokenId",
          "type": "uint256"
        }
      ],
      "name": "Transfer",
      "type": "event"
    },
    {
      "anonymous": false,
      "inputs": [
        {
          "indexed": false,
          "internalType": "uint256",
          "name": "tokenId",
          "type": "uint256"
        }
      ],
      "name": "TropheyMinted",
      "type": "event"
    },
    {
      "inputs": [
        {
          "internalType": "address",
          "name": "to",
          "type": "address"
        },
        {
          "internalType": "uint256",
          "name": "tokenId",
          "type": "uint256"
        }
      ],
      "name": "approve",
      "outputs": [],
      "stateMutability": "nonpayable",
      "type": "function"
    },
    {
      "inputs": [
        {
          "internalType": "address",
          "name": "owner",
          "type": "address"
        }
      ],
      "name": "balanceOf",
      "outputs": [
        {
          "internalType": "uint256",
          "name": "",
          "type": "uint256"
        }
      ],
      "stateMutability": "view",
      "type": "function"
    },
    {
      "inputs": [
        {
          "internalType": "address",
          "name": "to",
          "type": "address"
        },
        {
          "internalType": "string",
          "name": "tokenURI",
          "type": "string"
        }
      ],
      "name": "createCollectible",
      "outputs": [],
      "stateMutability": "nonpayable",
      "type": "function"
    },
    {
      "inputs": [
        {
          "internalType": "uint256",
          "name": "tokenId",
          "type": "uint256"
        }
      ],
      "name": "getApproved",
      "outputs": [
        {
          "internalType": "address",
          "name": "",
          "type": "address"
        }
      ],
      "stateMutability": "view",
      "type": "function"
    },
    {
      "inputs": [
        {
          "internalType": "address",
          "name": "owner",
          "type": "address"
        },
        {
          "internalType": "address",
          "name": "operator",
          "type": "address"
        }
      ],
      "name": "isApprovedForAll",
      "outputs": [
        {
          "internalType": "bool",
          "name": "",
          "type": "bool"
        }
      ],
      "stateMutability": "view",
      "type": "function"
    },
    {
      "inputs": [],
      "name": "name",
      "outputs": [
        {
          "internalType": "string",
          "name": "",
          "type": "string"
        }
      ],
      "stateMutability": "view",
      "type": "function"
    },
    {
      "inputs": [],
      "name": "owner",
      "outputs": [
        {
          "internalType": "address",
          "name": "",
          "type": "address"
        }
      ],
      "stateMutability": "view",
      "type": "function"
    },
    {
      "inputs": [
        {
          "internalType": "uint256",
          "name": "tokenId",
          "type": "uint256"
        }
      ],
      "name": "ownerOf",
      "outputs": [
        {
          "internalType": "address",
          "name": "",
          "type": "address"
        }
      ],
      "stateMutability": "view",
      "type": "function"
    },
    {
      "inputs": [],
      "name": "renounceOwnership",
      "outputs": [],
      "stateMutability": "nonpayable",
      "type": "function"
    },
    {
      "inputs": [
        {
          "internalType": "address",
          "name": "from",
          "type": "address"
        },
        {
          "internalType": "address",
          "name": "to",
          "type": "address"
        },
        {
          "internalType": "uint256",
          "name": "tokenId",
          "type": "uint256"
        }
      ],
      "name": "safeTransferFrom",
      "outputs": [],
      "stateMutability": "nonpayable",
      "type": "function"
    },
    {
      "inputs": [
        {
          "internalType": "address",
          "name": "from",
          "type": "address"
        },
        {
          "internalType": "address",
          "name": "to",
          "type": "address"
        },
        {
          "internalType": "uint256",
          "name": "tokenId",
          "type": "uint256"
        },
        {
          "internalType": "bytes",
          "name": "_data",
          "type": "bytes"
        }
      ],
      "name": "safeTransferFrom",
      "outputs": [],
      "stateMutability": "nonpayable",
      "type": "function"
    },
    {
      "inputs": [
        {
          "internalType": "address",
          "name": "operator",
          "type": "address"
        },
        {
          "internalType": "bool",
          "name": "approved",
          "type": "bool"
        }
      ],
      "name": "setApprovalForAll",
      "outputs": [],
      "stateMutability": "nonpayable",
      "type": "function"
    },
    {
      "inputs": [
        {
          "internalType": "bytes4",
          "name": "interfaceId",
          "type": "bytes4"
        }
      ],
      "name": "supportsInterface",
      "outputs": [
        {
          "internalType": "bool",
          "name": "",
          "type": "bool"
        }
      ],
      "stateMutability": "view",
      "type": "function"
    },
    {
      "inputs": [],
      "name": "symbol",
      "outputs": [
        {
          "internalType": "string",
          "name": "",
          "type": "string"
        }
      ],
      "stateMutability": "view",
      "type": "function"
    },
    {
      "inputs": [
        {
          "internalType": "uint256",
          "name": "tokenId",
          "type": "uint256"
        }
      ],
      "name": "tokenURI",
      "outputs": [
        {
          "internalType": "string",
          "name": "",
          "type": "string"
        }
      ],
      "stateMutability": "view",
      "type": "function"
    },
    {
      "inputs": [
        {
          "internalType": "address",
          "name": "from",
          "type": "address"
        },
        {
          "internalType": "address",
          "name": "to",
          "type": "address"
        },
        {
          "internalType": "uint256",
          "name": "tokenId",
          "type": "uint256"
        }
      ],
      "name": "transferFrom",
      "outputs": [],
      "stateMutability": "nonpayable",
      "type": "function"
    },
    {
      "inputs": [
        {
          "internalType": "address",
          "name": "newOwner",
          "type": "address"
        }
      ],
      "name": "transferOwnership",
      "outputs": [],
      "stateMutability": "nonpayable",
      "type": "function"
    }
  ],
  "transactionHash": "0x6a8662b745828ac0744f178c3a70d592ae5e86ac14f05f7ba5898729225a0cd7",
  "args": [],
  "numDeployments": 1,
  "solcInputHash": "58f1f20a108e3db52faea05f3cf2126c",
  "bytecode": "0x608060405260006008553480156200001657600080fd5b506040518060400160405280600b81526020017f4d65746154726f706865790000000000000000000000000000000000000000008152506040518060400160405280600681526020017f4d54524f5048000000000000000000000000000000000000000000000000000081525081600090805190602001906200009b929190620001ab565b508060019080519060200190620000b4929190620001ab565b505050620000d7620000cb620000dd60201b60201c565b620000e560201b60201c565b620002c0565b600033905090565b6000600760009054906101000a900473ffffffffffffffffffffffffffffffffffffffff16905081600760006101000a81548173ffffffffffffffffffffffffffffffffffffffff021916908373ffffffffffffffffffffffffffffffffffffffff1602179055508173ffffffffffffffffffffffffffffffffffffffff168173ffffffffffffffffffffffffffffffffffffffff167f8be0079c531659141344cd1fd0a4f28419497f9722a3daafe3b4186f6b6457e060405160405180910390a35050565b828054620001b9906200025b565b90600052602060002090601f016020900481019282620001dd576000855562000229565b82601f10620001f857805160ff191683800117855562000229565b8280016001018555821562000229579182015b82811115620002285782518255916020019190600101906200020b565b5b5090506200023891906200023c565b5090565b5b80821115620002575760008160009055506001016200023d565b5090565b600060028204905060018216806200027457607f821691505b602082108114156200028b576200028a62000291565b5b50919050565b7f4e487b7100000000000000000000000000000000000000000000000000000000600052602260045260246000fd5b61305f80620002d06000396000f3fe608060405234801561001057600080fd5b506004361061010b5760003560e01c806370a08231116100a2578063a22cb46511610071578063a22cb465146102a4578063b88d4fde146102c0578063c87b56dd146102dc578063e985e9c51461030c578063f2fde38b1461033c5761010b565b806370a082311461022e578063715018a61461025e5780638da5cb5b1461026857806395d89b41146102865761010b565b806323b872dd116100de57806323b872dd146101aa57806342842e0e146101c65780635b193d07146101e25780636352211e146101fe5761010b565b806301ffc9a71461011057806306fdde0314610140578063081812fc1461015e578063095ea7b31461018e575b600080fd5b61012a6004803603810190610125919061200e565b610358565b604051610137919061245a565b60405180910390f35b61014861043a565b6040516101559190612475565b60405180910390f35b61017860048036038101906101739190612060565b6104cc565b60405161018591906123f3565b60405180910390f35b6101a860048036038101906101a39190611fd2565b610551565b005b6101c460048036038101906101bf9190611e78565b610669565b005b6101e060048036038101906101db9190611e78565b6106c9565b005b6101fc60048036038101906101f79190611f7e565b6106e9565b005b61021860048036038101906102139190612060565b6107d2565b60405161022591906123f3565b60405180910390f35b61024860048036038101906102439190611e13565b610884565b60405161025591906126d7565b60405180910390f35b61026661093c565b005b6102706109c4565b60405161027d91906123f3565b60405180910390f35b61028e6109ee565b60405161029b9190612475565b60405180910390f35b6102be60048036038101906102b99190611f42565b610a80565b005b6102da60048036038101906102d59190611ec7565b610a96565b005b6102f660048036038101906102f19190612060565b610af8565b6040516103039190612475565b60405180910390f35b61032660048036038101906103219190611e3c565b610c4a565b604051610333919061245a565b60405180910390f35b61035660048036038101906103519190611e13565b610cde565b005b60007f80ac58cd000000000000000000000000000000000000000000000000000000007bffffffffffffffffffffffffffffffffffffffffffffffffffffffff1916827bffffffffffffffffffffffffffffffffffffffffffffffffffffffff1916148061042357507f5b5e139f000000000000000000000000000000000000000000000000000000007bffffffffffffffffffffffffffffffffffffffffffffffffffffffff1916827bffffffffffffffffffffffffffffffffffffffffffffffffffffffff1916145b80610433575061043282610dd6565b5b9050919050565b6060600080546104499061292d565b80601f01602080910402602001604051908101604052809291908181526020018280546104759061292d565b80156104c25780601f10610497576101008083540402835291602001916104c2565b820191906000526020600020905b8154815290600101906020018083116104a557829003601f168201915b5050505050905090565b60006104d782610e40565b610516576040517f08c379a000000000000000000000000000000000000000000000000000000000815260040161050d90612637565b60405180910390fd5b6004600083815260200190815260200160002060009054906101000a900473ffffffffffffffffffffffffffffffffffffffff169050919050565b600061055c826107d2565b90508073ffffffffffffffffffffffffffffffffffffffff168373ffffffffffffffffffffffffffffffffffffffff1614156105cd576040517f08c379a00000000000000000000000000000000000000000000000000000000081526004016105c490612697565b60405180910390fd5b8073ffffffffffffffffffffffffffffffffffffffff166105ec610eac565b73ffffffffffffffffffffffffffffffffffffffff16148061061b575061061a81610615610eac565b610c4a565b5b61065a576040517f08c379a000000000000000000000000000000000000000000000000000000000815260040161065190612577565b60405180910390fd5b6106648383610eb4565b505050565b61067a610674610eac565b82610f6d565b6106b9576040517f08c379a00000000000000000000000000000000000000000000000000000000081526004016106b0906126b7565b60405180910390fd5b6106c483838361104b565b505050565b6106e483838360405180602001604052806000815250610a96565b505050565b6106f1610eac565b73ffffffffffffffffffffffffffffffffffffffff1661070f6109c4565b73ffffffffffffffffffffffffffffffffffffffff1614610765576040517f08c379a000000000000000000000000000000000000000000000000000000000815260040161075c90612657565b60405180910390fd5b610771826008546112b2565b61077d600854826112d0565b6008600081548092919061079090612990565b91905055507fce963f23c247e494a5463616d3e8fc3e15bc93cfbd40ef34c22754b18046674d6008546040516107c691906126d7565b60405180910390a15050565b6000806002600084815260200190815260200160002060009054906101000a900473ffffffffffffffffffffffffffffffffffffffff169050600073ffffffffffffffffffffffffffffffffffffffff168173ffffffffffffffffffffffffffffffffffffffff16141561087b576040517f08c379a0000000000000000000000000000000000000000000000000000000008152600401610872906125b7565b60405180910390fd5b80915050919050565b60008073ffffffffffffffffffffffffffffffffffffffff168273ffffffffffffffffffffffffffffffffffffffff1614156108f5576040517f08c379a00000000000000000000000000000000000000000000000000000000081526004016108ec90612597565b60405180910390fd5b600360008373ffffffffffffffffffffffffffffffffffffffff1673ffffffffffffffffffffffffffffffffffffffff168152602001908152602001600020549050919050565b610944610eac565b73ffffffffffffffffffffffffffffffffffffffff166109626109c4565b73ffffffffffffffffffffffffffffffffffffffff16146109b8576040517f08c379a00000000000000000000000000000000000000000000000000000000081526004016109af90612657565b60405180910390fd5b6109c26000611344565b565b6000600760009054906101000a900473ffffffffffffffffffffffffffffffffffffffff16905090565b6060600180546109fd9061292d565b80601f0160208091040260200160405190810160405280929190818152602001828054610a299061292d565b8015610a765780601f10610a4b57610100808354040283529160200191610a76565b820191906000526020600020905b815481529060010190602001808311610a5957829003601f168201915b5050505050905090565b610a92610a8b610eac565b838361140a565b5050565b610aa7610aa1610eac565b83610f6d565b610ae6576040517f08c379a0000000000000000000000000000000000000000000000000000000008152600401610add906126b7565b60405180910390fd5b610af284848484611577565b50505050565b6060610b0382610e40565b610b42576040517f08c379a0000000000000000000000000000000000000000000000000000000008152600401610b3990612617565b60405180910390fd5b6000600660008481526020019081526020016000208054610b629061292d565b80601f0160208091040260200160405190810160405280929190818152602001828054610b8e9061292d565b8015610bdb5780601f10610bb057610100808354040283529160200191610bdb565b820191906000526020600020905b815481529060010190602001808311610bbe57829003601f168201915b505050505090506000610bec6115d3565b9050600081511415610c02578192505050610c45565b600082511115610c37578082604051602001610c1f9291906123cf565b60405160208183030381529060405292505050610c45565b610c40846115ea565b925050505b919050565b6000600560008473ffffffffffffffffffffffffffffffffffffffff1673ffffffffffffffffffffffffffffffffffffffff16815260200190815260200160002060008373ffffffffffffffffffffffffffffffffffffffff1673ffffffffffffffffffffffffffffffffffffffff16815260200190815260200160002060009054906101000a900460ff16905092915050565b610ce6610eac565b73ffffffffffffffffffffffffffffffffffffffff16610d046109c4565b73ffffffffffffffffffffffffffffffffffffffff1614610d5a576040517f08c379a0000000000000000000000000000000000000000000000000000000008152600401610d5190612657565b60405180910390fd5b600073ffffffffffffffffffffffffffffffffffffffff168173ffffffffffffffffffffffffffffffffffffffff161415610dca576040517f08c379a0000000000000000000000000000000000000000000000000000000008152600401610dc1906124b7565b60405180910390fd5b610dd381611344565b50565b60007f01ffc9a7000000000000000000000000000000000000000000000000000000007bffffffffffffffffffffffffffffffffffffffffffffffffffffffff1916827bffffffffffffffffffffffffffffffffffffffffffffffffffffffff1916149050919050565b60008073ffffffffffffffffffffffffffffffffffffffff166002600084815260200190815260200160002060009054906101000a900473ffffffffffffffffffffffffffffffffffffffff1673ffffffffffffffffffffffffffffffffffffffff1614159050919050565b600033905090565b816004600083815260200190815260200160002060006101000a81548173ffffffffffffffffffffffffffffffffffffffff021916908373ffffffffffffffffffffffffffffffffffffffff160217905550808273ffffffffffffffffffffffffffffffffffffffff16610f27836107d2565b73ffffffffffffffffffffffffffffffffffffffff167f8c5be1e5ebec7d5bd14f71427d1e84f3dd0314c0f7b2291e5b200ac8c7c3b92560405160405180910390a45050565b6000610f7882610e40565b610fb7576040517f08c379a0000000000000000000000000000000000000000000000000000000008152600401610fae90612557565b60405180910390fd5b6000610fc2836107d2565b90508073ffffffffffffffffffffffffffffffffffffffff168473ffffffffffffffffffffffffffffffffffffffff16148061100457506110038185610c4a565b5b8061104257508373ffffffffffffffffffffffffffffffffffffffff1661102a846104cc565b73ffffffffffffffffffffffffffffffffffffffff16145b91505092915050565b8273ffffffffffffffffffffffffffffffffffffffff1661106b826107d2565b73ffffffffffffffffffffffffffffffffffffffff16146110c1576040517f08c379a00000000000000000000000000000000000000000000000000000000081526004016110b8906124d7565b60405180910390fd5b600073ffffffffffffffffffffffffffffffffffffffff168273ffffffffffffffffffffffffffffffffffffffff161415611131576040517f08c379a000000000000000000000000000000000000000000000000000000000815260040161112890612517565b60405180910390fd5b61113c838383611691565b611147600082610eb4565b6001600360008573ffffffffffffffffffffffffffffffffffffffff1673ffffffffffffffffffffffffffffffffffffffff16815260200190815260200160002060008282546111979190612843565b925050819055506001600360008473ffffffffffffffffffffffffffffffffffffffff1673ffffffffffffffffffffffffffffffffffffffff16815260200190815260200160002060008282546111ee91906127bc565b92505081905550816002600083815260200190815260200160002060006101000a81548173ffffffffffffffffffffffffffffffffffffffff021916908373ffffffffffffffffffffffffffffffffffffffff160217905550808273ffffffffffffffffffffffffffffffffffffffff168473ffffffffffffffffffffffffffffffffffffffff167fddf252ad1be2c89b69c2b068fc378daa952ba7f163c4a11628f55a4df523b3ef60405160405180910390a46112ad838383611696565b505050565b6112cc82826040518060200160405280600081525061169b565b5050565b6112d982610e40565b611318576040517f08c379a000000000000000000000000000000000000000000000000000000000815260040161130f906125d7565b60405180910390fd5b8060066000848152602001908152602001600020908051906020019061133f929190611c37565b505050565b6000600760009054906101000a900473ffffffffffffffffffffffffffffffffffffffff16905081600760006101000a81548173ffffffffffffffffffffffffffffffffffffffff021916908373ffffffffffffffffffffffffffffffffffffffff1602179055508173ffffffffffffffffffffffffffffffffffffffff168173ffffffffffffffffffffffffffffffffffffffff167f8be0079c531659141344cd1fd0a4f28419497f9722a3daafe3b4186f6b6457e060405160405180910390a35050565b8173ffffffffffffffffffffffffffffffffffffffff168373ffffffffffffffffffffffffffffffffffffffff161415611479576040517f08c379a000000000000000000000000000000000000000000000000000000000815260040161147090612537565b60405180910390fd5b80600560008573ffffffffffffffffffffffffffffffffffffffff1673ffffffffffffffffffffffffffffffffffffffff16815260200190815260200160002060008473ffffffffffffffffffffffffffffffffffffffff1673ffffffffffffffffffffffffffffffffffffffff16815260200190815260200160002060006101000a81548160ff0219169083151502179055508173ffffffffffffffffffffffffffffffffffffffff168373ffffffffffffffffffffffffffffffffffffffff167f17307eab39ab6107e8899845ad3d59bd9653f200f220920489ca2b5937696c318360405161156a919061245a565b60405180910390a3505050565b61158284848461104b565b61158e848484846116f6565b6115cd576040517f08c379a00000000000000000000000000000000000000000000000000000000081526004016115c490612497565b60405180910390fd5b50505050565b606060405180602001604052806000815250905090565b60606115f582610e40565b611634576040517f08c379a000000000000000000000000000000000000000000000000000000000815260040161162b90612677565b60405180910390fd5b600061163e6115d3565b9050600081511161165e5760405180602001604052806000815250611689565b806116688461188d565b6040516020016116799291906123cf565b6040516020818303038152906040525b915050919050565b505050565b505050565b6116a58383611a3a565b6116b260008484846116f6565b6116f1576040517f08c379a00000000000000000000000000000000000000000000000000000000081526004016116e890612497565b60405180910390fd5b505050565b60006117178473ffffffffffffffffffffffffffffffffffffffff16611c14565b15611880578373ffffffffffffffffffffffffffffffffffffffff1663150b7a02611740610eac565b8786866040518563ffffffff1660e01b8152600401611762949392919061240e565b602060405180830381600087803b15801561177c57600080fd5b505af19250505080156117ad57506040513d601f19601f820116820180604052508101906117aa9190612037565b60015b611830573d80600081146117dd576040519150601f19603f3d011682016040523d82523d6000602084013e6117e2565b606091505b50600081511415611828576040517f08c379a000000000000000000000000000000000000000000000000000000000815260040161181f90612497565b60405180910390fd5b805181602001fd5b63150b7a0260e01b7bffffffffffffffffffffffffffffffffffffffffffffffffffffffff1916817bffffffffffffffffffffffffffffffffffffffffffffffffffffffff191614915050611885565b600190505b949350505050565b606060008214156118d5576040518060400160405280600181526020017f30000000000000000000000000000000000000000000000000000000000000008152509050611a35565b600082905060005b600082146119075780806118f090612990565b915050600a826119009190612812565b91506118dd565b60008167ffffffffffffffff811115611949577f4e487b7100000000000000000000000000000000000000000000000000000000600052604160045260246000fd5b6040519080825280601f01601f19166020018201604052801561197b5781602001600182028036833780820191505090505b5090505b60008514611a2e576001826119949190612843565b9150600a856119a391906129d9565b60306119af91906127bc565b60f81b8183815181106119eb577f4e487b7100000000000000000000000000000000000000000000000000000000600052603260045260246000fd5b60200101907effffffffffffffffffffffffffffffffffffffffffffffffffffffffffffff1916908160001a905350600a85611a279190612812565b945061197f565b8093505050505b919050565b600073ffffffffffffffffffffffffffffffffffffffff168273ffffffffffffffffffffffffffffffffffffffff161415611aaa576040517f08c379a0000000000000000000000000000000000000000000000000000000008152600401611aa1906125f7565b60405180910390fd5b611ab381610e40565b15611af3576040517f08c379a0000000000000000000000000000000000000000000000000000000008152600401611aea906124f7565b60405180910390fd5b611aff60008383611691565b6001600360008473ffffffffffffffffffffffffffffffffffffffff1673ffffffffffffffffffffffffffffffffffffffff1681526020019081526020016000206000828254611b4f91906127bc565b92505081905550816002600083815260200190815260200160002060006101000a81548173ffffffffffffffffffffffffffffffffffffffff021916908373ffffffffffffffffffffffffffffffffffffffff160217905550808273ffffffffffffffffffffffffffffffffffffffff16600073ffffffffffffffffffffffffffffffffffffffff167fddf252ad1be2c89b69c2b068fc378daa952ba7f163c4a11628f55a4df523b3ef60405160405180910390a4611c1060008383611696565b5050565b6000808273ffffffffffffffffffffffffffffffffffffffff163b119050919050565b828054611c439061292d565b90600052602060002090601f016020900481019282611c655760008555611cac565b82601f10611c7e57805160ff1916838001178555611cac565b82800160010185558215611cac579182015b82811115611cab578251825591602001919060010190611c90565b5b509050611cb99190611cbd565b5090565b5b80821115611cd6576000816000905550600101611cbe565b5090565b6000611ced611ce884612717565b6126f2565b905082815260208101848484011115611d0557600080fd5b611d108482856128eb565b509392505050565b6000611d2b611d2684612748565b6126f2565b905082815260208101848484011115611d4357600080fd5b611d4e8482856128eb565b509392505050565b600081359050611d6581612fcd565b92915050565b600081359050611d7a81612fe4565b92915050565b600081359050611d8f81612ffb565b92915050565b600081519050611da481612ffb565b92915050565b600082601f830112611dbb57600080fd5b8135611dcb848260208601611cda565b91505092915050565b600082601f830112611de557600080fd5b8135611df5848260208601611d18565b91505092915050565b600081359050611e0d81613012565b92915050565b600060208284031215611e2557600080fd5b6000611e3384828501611d56565b91505092915050565b60008060408385031215611e4f57600080fd5b6000611e5d85828601611d56565b9250506020611e6e85828601611d56565b9150509250929050565b600080600060608486031215611e8d57600080fd5b6000611e9b86828701611d56565b9350506020611eac86828701611d56565b9250506040611ebd86828701611dfe565b9150509250925092565b60008060008060808587031215611edd57600080fd5b6000611eeb87828801611d56565b9450506020611efc87828801611d56565b9350506040611f0d87828801611dfe565b925050606085013567ffffffffffffffff811115611f2a57600080fd5b611f3687828801611daa565b91505092959194509250565b60008060408385031215611f5557600080fd5b6000611f6385828601611d56565b9250506020611f7485828601611d6b565b9150509250929050565b60008060408385031215611f9157600080fd5b6000611f9f85828601611d56565b925050602083013567ffffffffffffffff811115611fbc57600080fd5b611fc885828601611dd4565b9150509250929050565b60008060408385031215611fe557600080fd5b6000611ff385828601611d56565b925050602061200485828601611dfe565b9150509250929050565b60006020828403121561202057600080fd5b600061202e84828501611d80565b91505092915050565b60006020828403121561204957600080fd5b600061205784828501611d95565b91505092915050565b60006020828403121561207257600080fd5b600061208084828501611dfe565b91505092915050565b61209281612877565b82525050565b6120a181612889565b82525050565b60006120b282612779565b6120bc818561278f565b93506120cc8185602086016128fa565b6120d581612ac6565b840191505092915050565b60006120eb82612784565b6120f581856127a0565b93506121058185602086016128fa565b61210e81612ac6565b840191505092915050565b600061212482612784565b61212e81856127b1565b935061213e8185602086016128fa565b80840191505092915050565b60006121576032836127a0565b915061216282612ad7565b604082019050919050565b600061217a6026836127a0565b915061218582612b26565b604082019050919050565b600061219d6025836127a0565b91506121a882612b75565b604082019050919050565b60006121c0601c836127a0565b91506121cb82612bc4565b602082019050919050565b60006121e36024836127a0565b91506121ee82612bed565b604082019050919050565b60006122066019836127a0565b915061221182612c3c565b602082019050919050565b6000612229602c836127a0565b915061223482612c65565b604082019050919050565b600061224c6038836127a0565b915061225782612cb4565b604082019050919050565b600061226f602a836127a0565b915061227a82612d03565b604082019050919050565b60006122926029836127a0565b915061229d82612d52565b604082019050919050565b60006122b5602e836127a0565b91506122c082612da1565b604082019050919050565b60006122d86020836127a0565b91506122e382612df0565b602082019050919050565b60006122fb6031836127a0565b915061230682612e19565b604082019050919050565b600061231e602c836127a0565b915061232982612e68565b604082019050919050565b60006123416020836127a0565b915061234c82612eb7565b602082019050919050565b6000612364602f836127a0565b915061236f82612ee0565b604082019050919050565b60006123876021836127a0565b915061239282612f2f565b604082019050919050565b60006123aa6031836127a0565b91506123b582612f7e565b604082019050919050565b6123c9816128e1565b82525050565b60006123db8285612119565b91506123e78284612119565b91508190509392505050565b60006020820190506124086000830184612089565b92915050565b60006080820190506124236000830187612089565b6124306020830186612089565b61243d60408301856123c0565b818103606083015261244f81846120a7565b905095945050505050565b600060208201905061246f6000830184612098565b92915050565b6000602082019050818103600083015261248f81846120e0565b905092915050565b600060208201905081810360008301526124b08161214a565b9050919050565b600060208201905081810360008301526124d08161216d565b9050919050565b600060208201905081810360008301526124f081612190565b9050919050565b60006020820190508181036000830152612510816121b3565b9050919050565b60006020820190508181036000830152612530816121d6565b9050919050565b60006020820190508181036000830152612550816121f9565b9050919050565b600060208201905081810360008301526125708161221c565b9050919050565b600060208201905081810360008301526125908161223f565b9050919050565b600060208201905081810360008301526125b081612262565b9050919050565b600060208201905081810360008301526125d081612285565b9050919050565b600060208201905081810360008301526125f0816122a8565b9050919050565b60006020820190508181036000830152612610816122cb565b9050919050565b60006020820190508181036000830152612630816122ee565b9050919050565b6000602082019050818103600083015261265081612311565b9050919050565b6000602082019050818103600083015261267081612334565b9050919050565b6000602082019050818103600083015261269081612357565b9050919050565b600060208201905081810360008301526126b08161237a565b9050919050565b600060208201905081810360008301526126d08161239d565b9050919050565b60006020820190506126ec60008301846123c0565b92915050565b60006126fc61270d565b9050612708828261295f565b919050565b6000604051905090565b600067ffffffffffffffff82111561273257612731612a97565b5b61273b82612ac6565b9050602081019050919050565b600067ffffffffffffffff82111561276357612762612a97565b5b61276c82612ac6565b9050602081019050919050565b600081519050919050565b600081519050919050565b600082825260208201905092915050565b600082825260208201905092915050565b600081905092915050565b60006127c7826128e1565b91506127d2836128e1565b9250827fffffffffffffffffffffffffffffffffffffffffffffffffffffffffffffffff0382111561280757612806612a0a565b5b828201905092915050565b600061281d826128e1565b9150612828836128e1565b92508261283857612837612a39565b5b828204905092915050565b600061284e826128e1565b9150612859836128e1565b92508282101561286c5761286b612a0a565b5b828203905092915050565b6000612882826128c1565b9050919050565b60008115159050919050565b60007fffffffff0000000000000000000000000000000000000000000000000000000082169050919050565b600073ffffffffffffffffffffffffffffffffffffffff82169050919050565b6000819050919050565b82818337600083830152505050565b60005b838110156129185780820151818401526020810190506128fd565b83811115612927576000848401525b50505050565b6000600282049050600182168061294557607f821691505b6020821081141561295957612958612a68565b5b50919050565b61296882612ac6565b810181811067ffffffffffffffff8211171561298757612986612a97565b5b80604052505050565b600061299b826128e1565b91507fffffffffffffffffffffffffffffffffffffffffffffffffffffffffffffffff8214156129ce576129cd612a0a565b5b600182019050919050565b60006129e4826128e1565b91506129ef836128e1565b9250826129ff576129fe612a39565b5b828206905092915050565b7f4e487b7100000000000000000000000000000000000000000000000000000000600052601160045260246000fd5b7f4e487b7100000000000000000000000000000000000000000000000000000000600052601260045260246000fd5b7f4e487b7100000000000000000000000000000000000000000000000000000000600052602260045260246000fd5b7f4e487b7100000000000000000000000000000000000000000000000000000000600052604160045260246000fd5b6000601f19601f8301169050919050565b7f4552433732313a207472616e7366657220746f206e6f6e20455243373231526560008201527f63656976657220696d706c656d656e7465720000000000000000000000000000602082015250565b7f4f776e61626c653a206e6577206f776e657220697320746865207a65726f206160008201527f6464726573730000000000000000000000000000000000000000000000000000602082015250565b7f4552433732313a207472616e736665722066726f6d20696e636f72726563742060008201527f6f776e6572000000000000000000000000000000000000000000000000000000602082015250565b7f4552433732313a20746f6b656e20616c7265616479206d696e74656400000000600082015250565b7f4552433732313a207472616e7366657220746f20746865207a65726f2061646460008201527f7265737300000000000000000000000000000000000000000000000000000000602082015250565b7f4552433732313a20617070726f766520746f2063616c6c657200000000000000600082015250565b7f4552433732313a206f70657261746f7220717565727920666f72206e6f6e657860008201527f697374656e7420746f6b656e0000000000000000000000000000000000000000602082015250565b7f4552433732313a20617070726f76652063616c6c6572206973206e6f74206f7760008201527f6e6572206e6f7220617070726f76656420666f7220616c6c0000000000000000602082015250565b7f4552433732313a2062616c616e636520717565727920666f7220746865207a6560008201527f726f206164647265737300000000000000000000000000000000000000000000602082015250565b7f4552433732313a206f776e657220717565727920666f72206e6f6e657869737460008201527f656e7420746f6b656e0000000000000000000000000000000000000000000000602082015250565b7f45524337323155524953746f726167653a2055524920736574206f66206e6f6e60008201527f6578697374656e7420746f6b656e000000000000000000000000000000000000602082015250565b7f4552433732313a206d696e7420746f20746865207a65726f2061646472657373600082015250565b7f45524337323155524953746f726167653a2055524920717565727920666f722060008201527f6e6f6e6578697374656e7420746f6b656e000000000000000000000000000000602082015250565b7f4552433732313a20617070726f76656420717565727920666f72206e6f6e657860008201527f697374656e7420746f6b656e0000000000000000000000000000000000000000602082015250565b7f4f776e61626c653a2063616c6c6572206973206e6f7420746865206f776e6572600082015250565b7f4552433732314d657461646174613a2055524920717565727920666f72206e6f60008201527f6e6578697374656e7420746f6b656e0000000000000000000000000000000000602082015250565b7f4552433732313a20617070726f76616c20746f2063757272656e74206f776e6560008201527f7200000000000000000000000000000000000000000000000000000000000000602082015250565b7f4552433732313a207472616e736665722063616c6c6572206973206e6f74206f60008201527f776e6572206e6f7220617070726f766564000000000000000000000000000000602082015250565b612fd681612877565b8114612fe157600080fd5b50565b612fed81612889565b8114612ff857600080fd5b50565b61300481612895565b811461300f57600080fd5b50565b61301b816128e1565b811461302657600080fd5b5056fea2646970667358221220b98e6badd2bb6187afba6d751acf9e5541023c9c5709608fa88884a2d5eced6864736f6c63430008040033",
  "devdoc": {
    "kind": "dev",
    "methods": {
      "approve(address,uint256)": {
        "details": "See {IERC721-approve}."
      },
      "balanceOf(address)": {
        "details": "See {IERC721-balanceOf}."
      },
      "getApproved(uint256)": {
        "details": "See {IERC721-getApproved}."
      },
      "isApprovedForAll(address,address)": {
        "details": "See {IERC721-isApprovedForAll}."
      },
      "name()": {
        "details": "See {IERC721Metadata-name}."
      },
      "owner()": {
        "details": "Returns the address of the current owner."
      },
      "ownerOf(uint256)": {
        "details": "See {IERC721-ownerOf}."
      },
      "renounceOwnership()": {
        "details": "Leaves the contract without owner. It will not be possible to call `onlyOwner` functions anymore. Can only be called by the current owner. NOTE: Renouncing ownership will leave the contract without an owner, thereby removing any functionality that is only available to the owner."
      },
      "safeTransferFrom(address,address,uint256)": {
        "details": "See {IERC721-safeTransferFrom}."
      },
      "safeTransferFrom(address,address,uint256,bytes)": {
        "details": "See {IERC721-safeTransferFrom}."
      },
      "setApprovalForAll(address,bool)": {
        "details": "See {IERC721-setApprovalForAll}."
      },
      "supportsInterface(bytes4)": {
        "details": "See {IERC165-supportsInterface}."
      },
      "symbol()": {
        "details": "See {IERC721Metadata-symbol}."
      },
      "tokenURI(uint256)": {
        "details": "See {IERC721Metadata-tokenURI}."
      },
      "transferFrom(address,address,uint256)": {
        "details": "See {IERC721-transferFrom}."
      },
      "transferOwnership(address)": {
        "details": "Transfers ownership of the contract to a new account (`newOwner`). Can only be called by the current owner."
      }
    },
    "version": 1
  },
  "userdoc": {
    "kind": "user",
    "methods": {},
    "version": 1
  },
  "storageLayout": {
    "storage": [
      {
        "astId": 1321,
        "contract": "contracts/MetaTrophy.sol:MetaTrophy",
        "label": "_name",
        "offset": 0,
        "slot": "0",
        "type": "t_string_storage"
      },
      {
        "astId": 1323,
        "contract": "contracts/MetaTrophy.sol:MetaTrophy",
        "label": "_symbol",
        "offset": 0,
        "slot": "1",
        "type": "t_string_storage"
      },
      {
        "astId": 1327,
        "contract": "contracts/MetaTrophy.sol:MetaTrophy",
        "label": "_owners",
        "offset": 0,
        "slot": "2",
        "type": "t_mapping(t_uint256,t_address)"
      },
      {
        "astId": 1331,
        "contract": "contracts/MetaTrophy.sol:MetaTrophy",
        "label": "_balances",
        "offset": 0,
        "slot": "3",
        "type": "t_mapping(t_address,t_uint256)"
      },
      {
        "astId": 1335,
        "contract": "contracts/MetaTrophy.sol:MetaTrophy",
        "label": "_tokenApprovals",
        "offset": 0,
        "slot": "4",
        "type": "t_mapping(t_uint256,t_address)"
      },
      {
        "astId": 1341,
        "contract": "contracts/MetaTrophy.sol:MetaTrophy",
        "label": "_operatorApprovals",
        "offset": 0,
        "slot": "5",
        "type": "t_mapping(t_address,t_mapping(t_address,t_bool))"
      },
      {
        "astId": 2308,
        "contract": "contracts/MetaTrophy.sol:MetaTrophy",
        "label": "_tokenURIs",
        "offset": 0,
        "slot": "6",
        "type": "t_mapping(t_uint256,t_string_storage)"
      },
      {
        "astId": 400,
        "contract": "contracts/MetaTrophy.sol:MetaTrophy",
        "label": "_owner",
        "offset": 0,
        "slot": "7",
        "type": "t_address"
      },
      {
        "astId": 3072,
        "contract": "contracts/MetaTrophy.sol:MetaTrophy",
        "label": "counter",
        "offset": 0,
        "slot": "8",
        "type": "t_uint256"
      }
    ],
    "types": {
      "t_address": {
        "encoding": "inplace",
        "label": "address",
        "numberOfBytes": "20"
      },
      "t_bool": {
        "encoding": "inplace",
        "label": "bool",
        "numberOfBytes": "1"
      },
      "t_mapping(t_address,t_bool)": {
        "encoding": "mapping",
        "key": "t_address",
        "label": "mapping(address => bool)",
        "numberOfBytes": "32",
        "value": "t_bool"
      },
      "t_mapping(t_address,t_mapping(t_address,t_bool))": {
        "encoding": "mapping",
        "key": "t_address",
        "label": "mapping(address => mapping(address => bool))",
        "numberOfBytes": "32",
        "value": "t_mapping(t_address,t_bool)"
      },
      "t_mapping(t_address,t_uint256)": {
        "encoding": "mapping",
        "key": "t_address",
        "label": "mapping(address => uint256)",
        "numberOfBytes": "32",
        "value": "t_uint256"
      },
      "t_mapping(t_uint256,t_address)": {
        "encoding": "mapping",
        "key": "t_uint256",
        "label": "mapping(uint256 => address)",
        "numberOfBytes": "32",
        "value": "t_address"
      },
      "t_mapping(t_uint256,t_string_storage)": {
        "encoding": "mapping",
        "key": "t_uint256",
        "label": "mapping(uint256 => string)",
        "numberOfBytes": "32",
        "value": "t_string_storage"
      },
      "t_string_storage": {
        "encoding": "bytes",
        "label": "string",
        "numberOfBytes": "32"
      },
      "t_uint256": {
        "encoding": "inplace",
        "label": "uint256",
        "numberOfBytes": "32"
      }
    }
  }
}