{
  "address": "0x1928F0FC7F97599ab6078199d791aF675F835032",
  "abi": [
    {
      "inputs": [
        {
          "internalType": "address",
          "name": "metaShort",
          "type": "address"
        }
      ],
      "stateMutability": "nonpayable",
      "type": "constructor"
    },
    {
      "anonymous": false,
      "inputs": [
        {
          "indexed": false,
          "internalType": "uint256",
          "name": "id",
          "type": "uint256"
        },
        {
          "indexed": false,
          "internalType": "uint256",
          "name": "desiredReactions",
          "type": "uint256"
        },
        {
          "indexed": false,
          "internalType": "uint256",
          "name": "desiredComments",
          "type": "uint256"
        },
        {
          "indexed": false,
          "internalType": "uint256",
          "name": "thresholdReactions",
          "type": "uint256"
        },
        {
          "indexed": false,
          "internalType": "uint256",
          "name": "thresholdComments",
          "type": "uint256"
        },
        {
          "indexed": false,
          "internalType": "uint256",
          "name": "until",
          "type": "uint256"
        },
        {
          "indexed": false,
          "internalType": "uint256",
          "name": "tips",
          "type": "uint256"
        },
        {
          "indexed": false,
          "internalType": "uint256",
          "name": "totalCalculatedPrice",
          "type": "uint256"
        },
        {
          "indexed": false,
          "internalType": "address",
          "name": "advertiser",
          "type": "address"
        }
      ],
      "name": "AdvertisementPublished",
      "type": "event"
    },
    {
      "anonymous": false,
      "inputs": [
        {
          "indexed": true,
          "internalType": "bytes32",
          "name": "role",
          "type": "bytes32"
        },
        {
          "indexed": true,
          "internalType": "bytes32",
          "name": "previousAdminRole",
          "type": "bytes32"
        },
        {
          "indexed": true,
          "internalType": "bytes32",
          "name": "newAdminRole",
          "type": "bytes32"
        }
      ],
      "name": "RoleAdminChanged",
      "type": "event"
    },
    {
      "anonymous": false,
      "inputs": [
        {
          "indexed": true,
          "internalType": "bytes32",
          "name": "role",
          "type": "bytes32"
        },
        {
          "indexed": true,
          "internalType": "address",
          "name": "account",
          "type": "address"
        },
        {
          "indexed": true,
          "internalType": "address",
          "name": "sender",
          "type": "address"
        }
      ],
      "name": "RoleGranted",
      "type": "event"
    },
    {
      "anonymous": false,
      "inputs": [
        {
          "indexed": true,
          "internalType": "bytes32",
          "name": "role",
          "type": "bytes32"
        },
        {
          "indexed": true,
          "internalType": "address",
          "name": "account",
          "type": "address"
        },
        {
          "indexed": true,
          "internalType": "address",
          "name": "sender",
          "type": "address"
        }
      ],
      "name": "RoleRevoked",
      "type": "event"
    },
    {
      "inputs": [],
      "name": "DEFAULT_ADMIN_ROLE",
      "outputs": [
        {
          "internalType": "bytes32",
          "name": "",
          "type": "bytes32"
        }
      ],
      "stateMutability": "view",
      "type": "function"
    },
    {
      "inputs": [
        {
          "internalType": "bytes32",
          "name": "role",
          "type": "bytes32"
        }
      ],
      "name": "getRoleAdmin",
      "outputs": [
        {
          "internalType": "bytes32",
          "name": "",
          "type": "bytes32"
        }
      ],
      "stateMutability": "view",
      "type": "function"
    },
    {
      "inputs": [
        {
          "internalType": "bytes32",
          "name": "role",
          "type": "bytes32"
        },
        {
          "internalType": "address",
          "name": "account",
          "type": "address"
        }
      ],
      "name": "grantRole",
      "outputs": [],
      "stateMutability": "nonpayable",
      "type": "function"
    },
    {
      "inputs": [
        {
          "internalType": "bytes32",
          "name": "role",
          "type": "bytes32"
        },
        {
          "internalType": "address",
          "name": "account",
          "type": "address"
        }
      ],
      "name": "hasRole",
      "outputs": [
        {
          "internalType": "bool",
          "name": "",
          "type": "bool"
        }
      ],
      "stateMutability": "view",
      "type": "function"
    },
    {
      "inputs": [
        {
          "internalType": "uint256",
          "name": "desiredReactions",
          "type": "uint256"
        },
        {
          "internalType": "uint256",
          "name": "desiredComments",
          "type": "uint256"
        },
        {
          "internalType": "uint256",
          "name": "thresholdReactions",
          "type": "uint256"
        },
        {
          "internalType": "uint256",
          "name": "thresholdComments",
          "type": "uint256"
        },
        {
          "internalType": "uint256",
          "name": "until",
          "type": "uint256"
        },
        {
          "internalType": "uint256",
          "name": "tips",
          "type": "uint256"
        }
      ],
      "name": "publishAdvertisement",
      "outputs": [],
      "stateMutability": "nonpayable",
      "type": "function"
    },
    {
      "inputs": [
        {
          "internalType": "address",
          "name": "advertiser",
          "type": "address"
        }
      ],
      "name": "registerAdvertiser",
      "outputs": [],
      "stateMutability": "nonpayable",
      "type": "function"
    },
    {
      "inputs": [
        {
          "internalType": "address",
          "name": "blogger",
          "type": "address"
        }
      ],
      "name": "registerBlogger",
      "outputs": [],
      "stateMutability": "nonpayable",
      "type": "function"
    },
    {
      "inputs": [
        {
          "internalType": "bytes32",
          "name": "role",
          "type": "bytes32"
        },
        {
          "internalType": "address",
          "name": "account",
          "type": "address"
        }
      ],
      "name": "renounceRole",
      "outputs": [],
      "stateMutability": "nonpayable",
      "type": "function"
    },
    {
      "inputs": [
        {
          "internalType": "uint256",
          "name": "advertisementId",
          "type": "uint256"
        }
      ],
      "name": "requireRewardForAdvertisement",
      "outputs": [],
      "stateMutability": "nonpayable",
      "type": "function"
    },
    {
      "inputs": [
        {
          "internalType": "bytes32",
          "name": "role",
          "type": "bytes32"
        },
        {
          "internalType": "address",
          "name": "account",
          "type": "address"
        }
      ],
      "name": "revokeRole",
      "outputs": [],
      "stateMutability": "nonpayable",
      "type": "function"
    },
    {
      "inputs": [
        {
          "internalType": "uint256",
          "name": "advertisementId",
          "type": "uint256"
        },
        {
          "internalType": "uint256",
          "name": "reactions",
          "type": "uint256"
        },
        {
          "internalType": "uint256",
          "name": "comments",
          "type": "uint256"
        }
      ],
      "name": "sendActivity",
      "outputs": [],
      "stateMutability": "nonpayable",
      "type": "function"
    },
    {
      "inputs": [
        {
          "internalType": "uint256",
          "name": "advertisementId",
          "type": "uint256"
        }
      ],
      "name": "submitAdvertisement",
      "outputs": [],
      "stateMutability": "nonpayable",
      "type": "function"
    },
    {
      "inputs": [
        {
          "internalType": "bytes4",
          "name": "interfaceId",
          "type": "bytes4"
        }
      ],
      "name": "supportsInterface",
      "outputs": [
        {
          "internalType": "bool",
          "name": "",
          "type": "bool"
        }
      ],
      "stateMutability": "view",
      "type": "function"
    },
    {
      "inputs": [],
      "name": "token",
      "outputs": [
        {
          "internalType": "contract MetaShort",
          "name": "",
          "type": "address"
        }
      ],
      "stateMutability": "view",
      "type": "function"
    }
  ],
  "transactionHash": "0xcf37d11bea5bedc3be020cbf8fa3264f8b24e8605691abb12b5948f626157a00",
  "args": [
    "0xB46FC2b43138fa0B82F75b3C5874A3778235d217"
  ],
  "numDeployments": 1,
  "solcInputHash": "4ff3a245bf464fd13bafb25e55ff16fc",
  "bytecode": "0x60806040527fae8a96feb7fa1c6eb9c1e5eab8f95f300b7a12b0ec1cf03c4c1752196e6e7b616002557f26e71ca4ebbe2ad7a241ad6ee71933b9dc517e7e17183658d1481a0e529332b9600355600a60055560326006556000600755600160085560026009553480156200007257600080fd5b506040516200295a3803806200295a8339818101604052810190620000989190620003b7565b80600460006101000a81548173ffffffffffffffffffffffffffffffffffffffff021916908373ffffffffffffffffffffffffffffffffffffffff160217905550620000ee6000801b336200023d60201b60201c565b600a60405180610160016040528060008152602001600081526020016000815260200160008152602001600081526020016000815260200160008152602001600081526020016000815260200160008152602001600073ffffffffffffffffffffffffffffffffffffffff1681525090806001815401808255809150506001900390600052602060002090600b0201600090919091909150600082015181600001556020820151816001015560408201518160020155606082015181600301556080820151816004015560a0820151816005015560c0820151816006015560e082015181600701556101008201518160080155610120820151816009015561014082015181600a0160006101000a81548173ffffffffffffffffffffffffffffffffffffffff021916908373ffffffffffffffffffffffffffffffffffffffff16021790555050505062000431565b6200024f82826200032e60201b60201c565b6200032a57600160008084815260200190815260200160002060000160008373ffffffffffffffffffffffffffffffffffffffff1673ffffffffffffffffffffffffffffffffffffffff16815260200190815260200160002060006101000a81548160ff021916908315150217905550620002cf6200039860201b60201c565b73ffffffffffffffffffffffffffffffffffffffff168173ffffffffffffffffffffffffffffffffffffffff16837f2f8788117e7eff1d82e926ec794901d17c78024a50270940304540a733656f0d60405160405180910390a45b5050565b600080600084815260200190815260200160002060000160008373ffffffffffffffffffffffffffffffffffffffff1673ffffffffffffffffffffffffffffffffffffffff16815260200190815260200160002060009054906101000a900460ff16905092915050565b600033905090565b600081519050620003b18162000417565b92915050565b600060208284031215620003ca57600080fd5b6000620003da84828501620003a0565b91505092915050565b6000620003f082620003f7565b9050919050565b600073ffffffffffffffffffffffffffffffffffffffff82169050919050565b6200042281620003e3565b81146200042e57600080fd5b50565b61251980620004416000396000f3fe608060405234801561001057600080fd5b50600436106100ea5760003560e01c806391d148541161008c578063d547741f11610066578063d547741f14610245578063e3569f3f14610261578063ea17e4eb1461027d578063fc0c546a14610299576100ea565b806391d14854146101db578063a217fddf1461020b578063d1cdf78614610229576100ea565b80632f2ff15d116100c85780632f2ff15d1461016b57806336568abe1461018757806346b760e1146101a35780634e3bc211146101bf576100ea565b806301ffc9a7146100ef578063248a9ca31461011f5780632ec65a481461014f575b600080fd5b61010960048036038101906101049190611930565b6102b7565b6040516101169190611d70565b60405180910390f35b610139600480360381019061013491906118cb565b610331565b6040516101469190611d8b565b60405180910390f35b61016960048036038101906101649190611879565b610350565b005b610185600480360381019061018091906118f4565b6103ab565b005b6101a1600480360381019061019c91906118f4565b6103cc565b005b6101bd60048036038101906101b89190611959565b61044f565b005b6101d960048036038101906101d49190611879565b61071b565b005b6101f560048036038101906101f091906118f4565b610776565b6040516102029190611d70565b60405180910390f35b6102136107e0565b6040516102209190611d8b565b60405180910390f35b610243600480360381019061023e91906119d1565b6107e7565b005b61025f600480360381019061025a91906118f4565b610ac7565b005b61027b60048036038101906102769190611982565b610ae8565b005b61029760048036038101906102929190611959565b610c8c565b005b6102a161120c565b6040516102ae9190611da6565b60405180910390f35b60007f7965db0b000000000000000000000000000000000000000000000000000000007bffffffffffffffffffffffffffffffffffffffffffffffffffffffff1916827bffffffffffffffffffffffffffffffffffffffffffffffffffffffff1916148061032a575061032982611232565b5b9050919050565b6000806000838152602001908152602001600020600101549050919050565b61035d6000801b33610776565b61039c576040517f08c379a000000000000000000000000000000000000000000000000000000000815260040161039390611e83565b60405180910390fd5b6103a86003548261129c565b50565b6103b482610331565b6103bd8161137c565b6103c7838361129c565b505050565b6103d4611390565b73ffffffffffffffffffffffffffffffffffffffff168173ffffffffffffffffffffffffffffffffffffffff1614610441576040517f08c379a000000000000000000000000000000000000000000000000000000000815260040161043890611f23565b60405180910390fd5b61044b8282611398565b5050565b61045b60035433610776565b61049a576040517f08c379a000000000000000000000000000000000000000000000000000000000815260040161049190611e23565b60405180910390fd5b600854600a82815481106104d7577f4e487b7100000000000000000000000000000000000000000000000000000000600052603260045260246000fd5b90600052602060002090600b02016007015414610529576040517f08c379a000000000000000000000000000000000000000000000000000000000815260040161052090611f03565b60405180910390fd5b6000600a8281548110610565577f4e487b7100000000000000000000000000000000000000000000000000000000600052603260045260246000fd5b90600052602060002090600b020160040154600a83815481106105b1577f4e487b7100000000000000000000000000000000000000000000000000000000600052603260045260246000fd5b90600052602060002090600b0201600501546105cd91906120c2565b9050600460009054906101000a900473ffffffffffffffffffffffffffffffffffffffff1673ffffffffffffffffffffffffffffffffffffffff166323b872dd3330846040518463ffffffff1660e01b815260040161062e93929190611d10565b602060405180830381600087803b15801561064857600080fd5b505af115801561065c573d6000803e3d6000fd5b505050506040513d601f19601f8201168201806040525081019061068091906118a2565b5081600160003373ffffffffffffffffffffffffffffffffffffffff1673ffffffffffffffffffffffffffffffffffffffff16815260200190815260200160002081905550600954600a8381548110610702577f4e487b7100000000000000000000000000000000000000000000000000000000600052603260045260246000fd5b90600052602060002090600b0201600701819055505050565b6107286000801b33610776565b610767576040517f08c379a000000000000000000000000000000000000000000000000000000000815260040161075e90611e83565b60405180910390fd5b6107736002548261129c565b50565b600080600084815260200190815260200160002060000160008373ffffffffffffffffffffffffffffffffffffffff1673ffffffffffffffffffffffffffffffffffffffff16815260200190815260200160002060009054906101000a900460ff16905092915050565b6000801b81565b6107f360025433610776565b610832576040517f08c379a000000000000000000000000000000000000000000000000000000000815260040161082990611ec3565b60405180910390fd5b6000600554876108429190612068565b600654876108509190612068565b61085a9190612012565b90506000818361086a9190612012565b905060006040518061016001604052808a8152602001898152602001888152602001878152602001858152602001868152602001838152602001600854815260200160008152602001600081526020013373ffffffffffffffffffffffffffffffffffffffff168152509050600460009054906101000a900473ffffffffffffffffffffffffffffffffffffffff1673ffffffffffffffffffffffffffffffffffffffff166323b872dd3330856040518463ffffffff1660e01b815260040161093593929190611d10565b602060405180830381600087803b15801561094f57600080fd5b505af1158015610963573d6000803e3d6000fd5b505050506040513d601f19601f8201168201806040525081019061098791906118a2565b50600a8190806001815401808255809150506001900390600052602060002090600b0201600090919091909150600082015181600001556020820151816001015560408201518160020155606082015181600301556080820151816004015560a0820151816005015560c0820151816006015560e082015181600701556101008201518160080155610120820151816009015561014082015181600a0160006101000a81548173ffffffffffffffffffffffffffffffffffffffff021916908373ffffffffffffffffffffffffffffffffffffffff16021790555050507f075601f141bb5ec781af018758df1fc9201e940014004e64c230f54a77f686ba6001600a80549050610a9791906120c2565b8a8a8a8a8a8a8933604051610ab499989796959493929190611f5e565b60405180910390a1505050505050505050565b610ad082610331565b610ad98161137c565b610ae38383611398565b505050565b610af56000801b33610776565b610b34576040517f08c379a0000000000000000000000000000000000000000000000000000000008152600401610b2b90611de3565b60405180910390fd5b600954600a8481548110610b71577f4e487b7100000000000000000000000000000000000000000000000000000000600052603260045260246000fd5b90600052602060002090600b02016007015414610bc3576040517f08c379a0000000000000000000000000000000000000000000000000000000008152600401610bba90611ea3565b60405180910390fd5b80600a8481548110610bfe577f4e487b7100000000000000000000000000000000000000000000000000000000600052603260045260246000fd5b90600052602060002090600b02016009016000828254610c1e9190612012565b9250508190555081600a8481548110610c60577f4e487b7100000000000000000000000000000000000000000000000000000000600052603260045260246000fd5b90600052602060002090600b02016008016000828254610c809190612012565b92505081905550505050565b610c9860035433610776565b610cd7576040517f08c379a0000000000000000000000000000000000000000000000000000000008152600401610cce90611e23565b60405180910390fd5b600954600a8281548110610d14577f4e487b7100000000000000000000000000000000000000000000000000000000600052603260045260246000fd5b90600052602060002090600b02016007015414610d66576040517f08c379a0000000000000000000000000000000000000000000000000000000008152600401610d5d90611ee3565b60405180910390fd5b80600160003373ffffffffffffffffffffffffffffffffffffffff1673ffffffffffffffffffffffffffffffffffffffff1681526020019081526020016000205414610de7576040517f08c379a0000000000000000000000000000000000000000000000000000000008152600401610dde90611e43565b60405180910390fd5b600a8181548110610e21577f4e487b7100000000000000000000000000000000000000000000000000000000600052603260045260246000fd5b90600052602060002090600b0201600601544211610e74576040517f08c379a0000000000000000000000000000000000000000000000000000000008152600401610e6b90611e63565b60405180910390fd5b6000600a8281548110610eb0577f4e487b7100000000000000000000000000000000000000000000000000000000600052603260045260246000fd5b90600052602060002090600b02016040518061016001604052908160008201548152602001600182015481526020016002820154815260200160038201548152602001600482015481526020016005820154815260200160068201548152602001600782015481526020016008820154815260200160098201548152602001600a820160009054906101000a900473ffffffffffffffffffffffffffffffffffffffff1673ffffffffffffffffffffffffffffffffffffffff1673ffffffffffffffffffffffffffffffffffffffff1681525050905080606001518161012001511080610fa557508060400151816101000151105b1561106857600460009054906101000a900473ffffffffffffffffffffffffffffffffffffffff1673ffffffffffffffffffffffffffffffffffffffff1663a9059cbb8261014001518360a001516040518363ffffffff1660e01b8152600401611010929190611d47565b602060405180830381600087803b15801561102a57600080fd5b505af115801561103e573d6000803e3d6000fd5b505050506040513d601f19601f8201168201806040525081019061106291906118a2565b506111c3565b600081608001518260a0015161107e91906120c2565b9050600460009054906101000a900473ffffffffffffffffffffffffffffffffffffffff1673ffffffffffffffffffffffffffffffffffffffff166342966c68826040518263ffffffff1660e01b81526004016110db9190611f43565b600060405180830381600087803b1580156110f557600080fd5b505af1158015611109573d6000803e3d6000fd5b50505050600460009054906101000a900473ffffffffffffffffffffffffffffffffffffffff1673ffffffffffffffffffffffffffffffffffffffff1663a9059cbb338460a001516040518363ffffffff1660e01b815260040161116e929190611d47565b602060405180830381600087803b15801561118857600080fd5b505af115801561119c573d6000803e3d6000fd5b505050506040513d601f19601f820116820180604052508101906111c091906118a2565b50505b6000600160003373ffffffffffffffffffffffffffffffffffffffff1673ffffffffffffffffffffffffffffffffffffffff168152602001908152602001600020819055505050565b600460009054906101000a900473ffffffffffffffffffffffffffffffffffffffff1681565b60007f01ffc9a7000000000000000000000000000000000000000000000000000000007bffffffffffffffffffffffffffffffffffffffffffffffffffffffff1916827bffffffffffffffffffffffffffffffffffffffffffffffffffffffff1916149050919050565b6112a68282610776565b61137857600160008084815260200190815260200160002060000160008373ffffffffffffffffffffffffffffffffffffffff1673ffffffffffffffffffffffffffffffffffffffff16815260200190815260200160002060006101000a81548160ff02191690831515021790555061131d611390565b73ffffffffffffffffffffffffffffffffffffffff168173ffffffffffffffffffffffffffffffffffffffff16837f2f8788117e7eff1d82e926ec794901d17c78024a50270940304540a733656f0d60405160405180910390a45b5050565b61138d81611388611390565b611479565b50565b600033905090565b6113a28282610776565b1561147557600080600084815260200190815260200160002060000160008373ffffffffffffffffffffffffffffffffffffffff1673ffffffffffffffffffffffffffffffffffffffff16815260200190815260200160002060006101000a81548160ff02191690831515021790555061141a611390565b73ffffffffffffffffffffffffffffffffffffffff168173ffffffffffffffffffffffffffffffffffffffff16837ff6391f5c32d9c69d2a47ea670b442974b53935d1edc7fd64eb21e047a839171b60405160405180910390a45b5050565b6114838282610776565b611512576114a88173ffffffffffffffffffffffffffffffffffffffff166014611516565b6114b68360001c6020611516565b6040516020016114c7929190611cd6565b6040516020818303038152906040526040517f08c379a00000000000000000000000000000000000000000000000000000000081526004016115099190611dc1565b60405180910390fd5b5050565b6060600060028360026115299190612068565b6115339190612012565b67ffffffffffffffff811115611572577f4e487b7100000000000000000000000000000000000000000000000000000000600052604160045260246000fd5b6040519080825280601f01601f1916602001820160405280156115a45781602001600182028036833780820191505090505b5090507f300000000000000000000000000000000000000000000000000000000000000081600081518110611602577f4e487b7100000000000000000000000000000000000000000000000000000000600052603260045260246000fd5b60200101907effffffffffffffffffffffffffffffffffffffffffffffffffffffffffffff1916908160001a9053507f78000000000000000000000000000000000000000000000000000000000000008160018151811061168c577f4e487b7100000000000000000000000000000000000000000000000000000000600052603260045260246000fd5b60200101907effffffffffffffffffffffffffffffffffffffffffffffffffffffffffffff1916908160001a905350600060018460026116cc9190612068565b6116d69190612012565b90505b60018111156117c2577f3031323334353637383961626364656600000000000000000000000000000000600f86166010811061173e577f4e487b7100000000000000000000000000000000000000000000000000000000600052603260045260246000fd5b1a60f81b82828151811061177b577f4e487b7100000000000000000000000000000000000000000000000000000000600052603260045260246000fd5b60200101907effffffffffffffffffffffffffffffffffffffffffffffffffffffffffffff1916908160001a905350600485901c9450806117bb906121cb565b90506116d9565b5060008414611806576040517f08c379a00000000000000000000000000000000000000000000000000000000081526004016117fd90611e03565b60405180910390fd5b8091505092915050565b60008135905061181f81612470565b92915050565b60008151905061183481612487565b92915050565b6000813590506118498161249e565b92915050565b60008135905061185e816124b5565b92915050565b600081359050611873816124cc565b92915050565b60006020828403121561188b57600080fd5b600061189984828501611810565b91505092915050565b6000602082840312156118b457600080fd5b60006118c284828501611825565b91505092915050565b6000602082840312156118dd57600080fd5b60006118eb8482850161183a565b91505092915050565b6000806040838503121561190757600080fd5b60006119158582860161183a565b925050602061192685828601611810565b9150509250929050565b60006020828403121561194257600080fd5b60006119508482850161184f565b91505092915050565b60006020828403121561196b57600080fd5b600061197984828501611864565b91505092915050565b60008060006060848603121561199757600080fd5b60006119a586828701611864565b93505060206119b686828701611864565b92505060406119c786828701611864565b9150509250925092565b60008060008060008060c087890312156119ea57600080fd5b60006119f889828a01611864565b9650506020611a0989828a01611864565b9550506040611a1a89828a01611864565b9450506060611a2b89828a01611864565b9350506080611a3c89828a01611864565b92505060a0611a4d89828a01611864565b9150509295509295509295565b611a63816120f6565b82525050565b611a7281612108565b82525050565b611a8181612114565b82525050565b611a9081612174565b82525050565b6000611aa182611feb565b611aab8185611ff6565b9350611abb818560208601612198565b611ac481612224565b840191505092915050565b6000611ada82611feb565b611ae48185612007565b9350611af4818560208601612198565b80840191505092915050565b6000611b0d600f83611ff6565b9150611b1882612235565b602082019050919050565b6000611b30602083611ff6565b9150611b3b8261225e565b602082019050919050565b6000611b53601583611ff6565b9150611b5e82612287565b602082019050919050565b6000611b76601d83611ff6565b9150611b81826122b0565b602082019050919050565b6000611b99601a83611ff6565b9150611ba4826122d9565b602082019050919050565b6000611bbc600f83611ff6565b9150611bc782612302565b602082019050919050565b6000611bdf601783612007565b9150611bea8261232b565b601782019050919050565b6000611c02601383611ff6565b9150611c0d82612354565b602082019050919050565b6000611c25601883611ff6565b9150611c308261237d565b602082019050919050565b6000611c48601d83611ff6565b9150611c53826123a6565b602082019050919050565b6000611c6b601e83611ff6565b9150611c76826123cf565b602082019050919050565b6000611c8e601183612007565b9150611c99826123f8565b601182019050919050565b6000611cb1602f83611ff6565b9150611cbc82612421565b604082019050919050565b611cd08161216a565b82525050565b6000611ce182611bd2565b9150611ced8285611acf565b9150611cf882611c81565b9150611d048284611acf565b91508190509392505050565b6000606082019050611d256000830186611a5a565b611d326020830185611a5a565b611d3f6040830184611cc7565b949350505050565b6000604082019050611d5c6000830185611a5a565b611d696020830184611cc7565b9392505050565b6000602082019050611d856000830184611a69565b92915050565b6000602082019050611da06000830184611a78565b92915050565b6000602082019050611dbb6000830184611a87565b92915050565b60006020820190508181036000830152611ddb8184611a96565b905092915050565b60006020820190508181036000830152611dfc81611b00565b9050919050565b60006020820190508181036000830152611e1c81611b23565b9050919050565b60006020820190508181036000830152611e3c81611b46565b9050919050565b60006020820190508181036000830152611e5c81611b69565b9050919050565b60006020820190508181036000830152611e7c81611b8c565b9050919050565b60006020820190508181036000830152611e9c81611baf565b9050919050565b60006020820190508181036000830152611ebc81611bf5565b9050919050565b60006020820190508181036000830152611edc81611c18565b9050919050565b60006020820190508181036000830152611efc81611c3b565b9050919050565b60006020820190508181036000830152611f1c81611c5e565b9050919050565b60006020820190508181036000830152611f3c81611ca4565b9050919050565b6000602082019050611f586000830184611cc7565b92915050565b600061012082019050611f74600083018c611cc7565b611f81602083018b611cc7565b611f8e604083018a611cc7565b611f9b6060830189611cc7565b611fa86080830188611cc7565b611fb560a0830187611cc7565b611fc260c0830186611cc7565b611fcf60e0830185611cc7565b611fdd610100830184611a5a565b9a9950505050505050505050565b600081519050919050565b600082825260208201905092915050565b600081905092915050565b600061201d8261216a565b91506120288361216a565b9250827fffffffffffffffffffffffffffffffffffffffffffffffffffffffffffffffff0382111561205d5761205c6121f5565b5b828201905092915050565b60006120738261216a565b915061207e8361216a565b9250817fffffffffffffffffffffffffffffffffffffffffffffffffffffffffffffffff04831182151516156120b7576120b66121f5565b5b828202905092915050565b60006120cd8261216a565b91506120d88361216a565b9250828210156120eb576120ea6121f5565b5b828203905092915050565b60006121018261214a565b9050919050565b60008115159050919050565b6000819050919050565b60007fffffffff0000000000000000000000000000000000000000000000000000000082169050919050565b600073ffffffffffffffffffffffffffffffffffffffff82169050919050565b6000819050919050565b600061217f82612186565b9050919050565b60006121918261214a565b9050919050565b60005b838110156121b657808201518184015260208101905061219b565b838111156121c5576000848401525b50505050565b60006121d68261216a565b915060008214156121ea576121e96121f5565b5b600182039050919050565b7f4e487b7100000000000000000000000000000000000000000000000000000000600052601160045260246000fd5b6000601f19601f8301169050919050565b7f73686f756c642062652061646d696e0000000000000000000000000000000000600082015250565b7f537472696e67733a20686578206c656e67746820696e73756666696369656e74600082015250565b7f796f752073686f756c6420626520626c6f676765720000000000000000000000600082015250565b7f6164766572746973656d656e742073686f756c6420626520796f757273000000600082015250565b7f61647665726973656d656e742073686f756c642066696e697368000000000000600082015250565b7f53686f756c642062652061646d696e0000000000000000000000000000000000600082015250565b7f416363657373436f6e74726f6c3a206163636f756e7420000000000000000000600082015250565b7f73686f756c642062652074616b656e2061647600000000000000000000000000600082015250565b7f596f752073686f756c6420626520616476657274697365720000000000000000600082015250565b7f6164766572746973656d656e742073686f756c642062652074616b656e000000600082015250565b7f6164766572746973656d656e742073686f756c64206265206163746976650000600082015250565b7f206973206d697373696e6720726f6c6520000000000000000000000000000000600082015250565b7f416363657373436f6e74726f6c3a2063616e206f6e6c792072656e6f756e636560008201527f20726f6c657320666f722073656c660000000000000000000000000000000000602082015250565b612479816120f6565b811461248457600080fd5b50565b61249081612108565b811461249b57600080fd5b50565b6124a781612114565b81146124b257600080fd5b50565b6124be8161211e565b81146124c957600080fd5b50565b6124d58161216a565b81146124e057600080fd5b5056fea264697066735822122087dc50430295f042856613c8ed4928426990b3fbfc4251e101edd87073fce78664736f6c63430008040033",
  "devdoc": {
    "kind": "dev",
    "methods": {
      "getRoleAdmin(bytes32)": {
        "details": "Returns the admin role that controls `role`. See {grantRole} and {revokeRole}. To change a role's admin, use {_setRoleAdmin}."
      },
      "grantRole(bytes32,address)": {
        "details": "Grants `role` to `account`. If `account` had not been already granted `role`, emits a {RoleGranted} event. Requirements: - the caller must have ``role``'s admin role."
      },
      "hasRole(bytes32,address)": {
        "details": "Returns `true` if `account` has been granted `role`."
      },
      "renounceRole(bytes32,address)": {
        "details": "Revokes `role` from the calling account. Roles are often managed via {grantRole} and {revokeRole}: this function's purpose is to provide a mechanism for accounts to lose their privileges if they are compromised (such as when a trusted device is misplaced). If the calling account had been revoked `role`, emits a {RoleRevoked} event. Requirements: - the caller must be `account`."
      },
      "revokeRole(bytes32,address)": {
        "details": "Revokes `role` from `account`. If `account` had been granted `role`, emits a {RoleRevoked} event. Requirements: - the caller must have ``role``'s admin role."
      },
      "supportsInterface(bytes4)": {
        "details": "See {IERC165-supportsInterface}."
      }
    },
    "version": 1
  },
  "userdoc": {
    "kind": "user",
    "methods": {},
    "version": 1
  },
  "storageLayout": {
    "storage": [
      {
        "astId": 24,
        "contract": "contracts/MetaShortGovernance.sol:MetaShortGovernance",
        "label": "_roles",
        "offset": 0,
        "slot": "0",
        "type": "t_mapping(t_bytes32,t_struct(RoleData)19_storage)"
      },
      {
        "astId": 1549,
        "contract": "contracts/MetaShortGovernance.sol:MetaShortGovernance",
        "label": "bloggersCurrentAdvertisement",
        "offset": 0,
        "slot": "1",
        "type": "t_mapping(t_address,t_uint256)"
      },
      {
        "astId": 1554,
        "contract": "contracts/MetaShortGovernance.sol:MetaShortGovernance",
        "label": "ADVERTISER_ROLE",
        "offset": 0,
        "slot": "2",
        "type": "t_bytes32"
      },
      {
        "astId": 1559,
        "contract": "contracts/MetaShortGovernance.sol:MetaShortGovernance",
        "label": "BLOGGER_ROLE",
        "offset": 0,
        "slot": "3",
        "type": "t_bytes32"
      },
      {
        "astId": 1562,
        "contract": "contracts/MetaShortGovernance.sol:MetaShortGovernance",
        "label": "token",
        "offset": 0,
        "slot": "4",
        "type": "t_contract(MetaShort)1496"
      },
      {
        "astId": 1565,
        "contract": "contracts/MetaShortGovernance.sol:MetaShortGovernance",
        "label": "TOKENS_PER_REACTION",
        "offset": 0,
        "slot": "5",
        "type": "t_uint256"
      },
      {
        "astId": 1568,
        "contract": "contracts/MetaShortGovernance.sol:MetaShortGovernance",
        "label": "TOKENS_PER_COMMENT",
        "offset": 0,
        "slot": "6",
        "type": "t_uint256"
      },
      {
        "astId": 1571,
        "contract": "contracts/MetaShortGovernance.sol:MetaShortGovernance",
        "label": "STATUS_ADVERTISEMENT_INACTIVE",
        "offset": 0,
        "slot": "7",
        "type": "t_uint256"
      },
      {
        "astId": 1574,
        "contract": "contracts/MetaShortGovernance.sol:MetaShortGovernance",
        "label": "STATUS_ADVERTISEMENT_ACTIVE",
        "offset": 0,
        "slot": "8",
        "type": "t_uint256"
      },
      {
        "astId": 1577,
        "contract": "contracts/MetaShortGovernance.sol:MetaShortGovernance",
        "label": "STATUS_ADVERTISEMENT_TAKEN",
        "offset": 0,
        "slot": "9",
        "type": "t_uint256"
      },
      {
        "astId": 1581,
        "contract": "contracts/MetaShortGovernance.sol:MetaShortGovernance",
        "label": "advertisements",
        "offset": 0,
        "slot": "10",
        "type": "t_array(t_struct(Advertisement)1525_storage)dyn_storage"
      }
    ],
    "types": {
      "t_address": {
        "encoding": "inplace",
        "label": "address",
        "numberOfBytes": "20"
      },
      "t_array(t_struct(Advertisement)1525_storage)dyn_storage": {
        "base": "t_struct(Advertisement)1525_storage",
        "encoding": "dynamic_array",
        "label": "struct MetaShortGovernance.Advertisement[]",
        "numberOfBytes": "32"
      },
      "t_bool": {
        "encoding": "inplace",
        "label": "bool",
        "numberOfBytes": "1"
      },
      "t_bytes32": {
        "encoding": "inplace",
        "label": "bytes32",
        "numberOfBytes": "32"
      },
      "t_contract(MetaShort)1496": {
        "encoding": "inplace",
        "label": "contract MetaShort",
        "numberOfBytes": "20"
      },
      "t_mapping(t_address,t_bool)": {
        "encoding": "mapping",
        "key": "t_address",
        "label": "mapping(address => bool)",
        "numberOfBytes": "32",
        "value": "t_bool"
      },
      "t_mapping(t_address,t_uint256)": {
        "encoding": "mapping",
        "key": "t_address",
        "label": "mapping(address => uint256)",
        "numberOfBytes": "32",
        "value": "t_uint256"
      },
      "t_mapping(t_bytes32,t_struct(RoleData)19_storage)": {
        "encoding": "mapping",
        "key": "t_bytes32",
        "label": "mapping(bytes32 => struct AccessControl.RoleData)",
        "numberOfBytes": "32",
        "value": "t_struct(RoleData)19_storage"
      },
      "t_struct(Advertisement)1525_storage": {
        "encoding": "inplace",
        "label": "struct MetaShortGovernance.Advertisement",
        "members": [
          {
            "astId": 1504,
            "contract": "contracts/MetaShortGovernance.sol:MetaShortGovernance",
            "label": "desiredReactions",
            "offset": 0,
            "slot": "0",
            "type": "t_uint256"
          },
          {
            "astId": 1506,
            "contract": "contracts/MetaShortGovernance.sol:MetaShortGovernance",
            "label": "desiredComments",
            "offset": 0,
            "slot": "1",
            "type": "t_uint256"
          },
          {
            "astId": 1508,
            "contract": "contracts/MetaShortGovernance.sol:MetaShortGovernance",
            "label": "thresholdReactions",
            "offset": 0,
            "slot": "2",
            "type": "t_uint256"
          },
          {
            "astId": 1510,
            "contract": "contracts/MetaShortGovernance.sol:MetaShortGovernance",
            "label": "thresholdComments",
            "offset": 0,
            "slot": "3",
            "type": "t_uint256"
          },
          {
            "astId": 1512,
            "contract": "contracts/MetaShortGovernance.sol:MetaShortGovernance",
            "label": "tips",
            "offset": 0,
            "slot": "4",
            "type": "t_uint256"
          },
          {
            "astId": 1514,
            "contract": "contracts/MetaShortGovernance.sol:MetaShortGovernance",
            "label": "totalCalculatedPrice",
            "offset": 0,
            "slot": "5",
            "type": "t_uint256"
          },
          {
            "astId": 1516,
            "contract": "contracts/MetaShortGovernance.sol:MetaShortGovernance",
            "label": "until",
            "offset": 0,
            "slot": "6",
            "type": "t_uint256"
          },
          {
            "astId": 1518,
            "contract": "contracts/MetaShortGovernance.sol:MetaShortGovernance",
            "label": "status",
            "offset": 0,
            "slot": "7",
            "type": "t_uint256"
          },
          {
            "astId": 1520,
            "contract": "contracts/MetaShortGovernance.sol:MetaShortGovernance",
            "label": "actualReactions",
            "offset": 0,
            "slot": "8",
            "type": "t_uint256"
          },
          {
            "astId": 1522,
            "contract": "contracts/MetaShortGovernance.sol:MetaShortGovernance",
            "label": "actualComments",
            "offset": 0,
            "slot": "9",
            "type": "t_uint256"
          },
          {
            "astId": 1524,
            "contract": "contracts/MetaShortGovernance.sol:MetaShortGovernance",
            "label": "advertiser",
            "offset": 0,
            "slot": "10",
            "type": "t_address"
          }
        ],
        "numberOfBytes": "352"
      },
      "t_struct(RoleData)19_storage": {
        "encoding": "inplace",
        "label": "struct AccessControl.RoleData",
        "members": [
          {
            "astId": 16,
            "contract": "contracts/MetaShortGovernance.sol:MetaShortGovernance",
            "label": "members",
            "offset": 0,
            "slot": "0",
            "type": "t_mapping(t_address,t_bool)"
          },
          {
            "astId": 18,
            "contract": "contracts/MetaShortGovernance.sol:MetaShortGovernance",
            "label": "adminRole",
            "offset": 0,
            "slot": "1",
            "type": "t_bytes32"
          }
        ],
        "numberOfBytes": "64"
      },
      "t_uint256": {
        "encoding": "inplace",
        "label": "uint256",
        "numberOfBytes": "32"
      }
    }
  }
}