{
  "address": "0x86Deb2c5De9DF0cfA393357b381E90bEd590C2c6",
  "abi": [
    {
      "inputs": [],
      "stateMutability": "nonpayable",
      "type": "constructor"
    },
    {
      "anonymous": false,
      "inputs": [
        {
          "indexed": true,
          "internalType": "address",
          "name": "owner",
          "type": "address"
        },
        {
          "indexed": true,
          "internalType": "address",
          "name": "spender",
          "type": "address"
        },
        {
          "indexed": false,
          "internalType": "uint256",
          "name": "value",
          "type": "uint256"
        }
      ],
      "name": "Approval",
      "type": "event"
    },
    {
      "anonymous": false,
      "inputs": [
        {
          "indexed": true,
          "internalType": "bytes32",
          "name": "role",
          "type": "bytes32"
        },
        {
          "indexed": true,
          "internalType": "bytes32",
          "name": "previousAdminRole",
          "type": "bytes32"
        },
        {
          "indexed": true,
          "internalType": "bytes32",
          "name": "newAdminRole",
          "type": "bytes32"
        }
      ],
      "name": "RoleAdminChanged",
      "type": "event"
    },
    {
      "anonymous": false,
      "inputs": [
        {
          "indexed": true,
          "internalType": "bytes32",
          "name": "role",
          "type": "bytes32"
        },
        {
          "indexed": true,
          "internalType": "address",
          "name": "account",
          "type": "address"
        },
        {
          "indexed": true,
          "internalType": "address",
          "name": "sender",
          "type": "address"
        }
      ],
      "name": "RoleGranted",
      "type": "event"
    },
    {
      "anonymous": false,
      "inputs": [
        {
          "indexed": true,
          "internalType": "bytes32",
          "name": "role",
          "type": "bytes32"
        },
        {
          "indexed": true,
          "internalType": "address",
          "name": "account",
          "type": "address"
        },
        {
          "indexed": true,
          "internalType": "address",
          "name": "sender",
          "type": "address"
        }
      ],
      "name": "RoleRevoked",
      "type": "event"
    },
    {
      "anonymous": false,
      "inputs": [
        {
          "indexed": true,
          "internalType": "address",
          "name": "from",
          "type": "address"
        },
        {
          "indexed": true,
          "internalType": "address",
          "name": "to",
          "type": "address"
        },
        {
          "indexed": false,
          "internalType": "uint256",
          "name": "value",
          "type": "uint256"
        }
      ],
      "name": "Transfer",
      "type": "event"
    },
    {
      "inputs": [],
      "name": "DEFAULT_ADMIN_ROLE",
      "outputs": [
        {
          "internalType": "bytes32",
          "name": "",
          "type": "bytes32"
        }
      ],
      "stateMutability": "view",
      "type": "function"
    },
    {
      "inputs": [],
      "name": "MINTER_ROLE",
      "outputs": [
        {
          "internalType": "bytes32",
          "name": "",
          "type": "bytes32"
        }
      ],
      "stateMutability": "view",
      "type": "function"
    },
    {
      "inputs": [
        {
          "internalType": "address",
          "name": "owner",
          "type": "address"
        },
        {
          "internalType": "address",
          "name": "spender",
          "type": "address"
        }
      ],
      "name": "allowance",
      "outputs": [
        {
          "internalType": "uint256",
          "name": "",
          "type": "uint256"
        }
      ],
      "stateMutability": "view",
      "type": "function"
    },
    {
      "inputs": [
        {
          "internalType": "address",
          "name": "spender",
          "type": "address"
        },
        {
          "internalType": "uint256",
          "name": "amount",
          "type": "uint256"
        }
      ],
      "name": "approve",
      "outputs": [
        {
          "internalType": "bool",
          "name": "",
          "type": "bool"
        }
      ],
      "stateMutability": "nonpayable",
      "type": "function"
    },
    {
      "inputs": [
        {
          "internalType": "address",
          "name": "account",
          "type": "address"
        }
      ],
      "name": "balanceOf",
      "outputs": [
        {
          "internalType": "uint256",
          "name": "",
          "type": "uint256"
        }
      ],
      "stateMutability": "view",
      "type": "function"
    },
    {
      "inputs": [
        {
          "internalType": "uint256",
          "name": "amount",
          "type": "uint256"
        }
      ],
      "name": "burn",
      "outputs": [],
      "stateMutability": "nonpayable",
      "type": "function"
    },
    {
      "inputs": [
        {
          "internalType": "address",
          "name": "account",
          "type": "address"
        },
        {
          "internalType": "uint256",
          "name": "amount",
          "type": "uint256"
        }
      ],
      "name": "burnFrom",
      "outputs": [],
      "stateMutability": "nonpayable",
      "type": "function"
    },
    {
      "inputs": [],
      "name": "decimals",
      "outputs": [
        {
          "internalType": "uint8",
          "name": "",
          "type": "uint8"
        }
      ],
      "stateMutability": "view",
      "type": "function"
    },
    {
      "inputs": [
        {
          "internalType": "address",
          "name": "spender",
          "type": "address"
        },
        {
          "internalType": "uint256",
          "name": "subtractedValue",
          "type": "uint256"
        }
      ],
      "name": "decreaseAllowance",
      "outputs": [
        {
          "internalType": "bool",
          "name": "",
          "type": "bool"
        }
      ],
      "stateMutability": "nonpayable",
      "type": "function"
    },
    {
      "inputs": [
        {
          "internalType": "bytes32",
          "name": "role",
          "type": "bytes32"
        }
      ],
      "name": "getRoleAdmin",
      "outputs": [
        {
          "internalType": "bytes32",
          "name": "",
          "type": "bytes32"
        }
      ],
      "stateMutability": "view",
      "type": "function"
    },
    {
      "inputs": [
        {
          "internalType": "bytes32",
          "name": "role",
          "type": "bytes32"
        },
        {
          "internalType": "address",
          "name": "account",
          "type": "address"
        }
      ],
      "name": "grantRole",
      "outputs": [],
      "stateMutability": "nonpayable",
      "type": "function"
    },
    {
      "inputs": [
        {
          "internalType": "bytes32",
          "name": "role",
          "type": "bytes32"
        },
        {
          "internalType": "address",
          "name": "account",
          "type": "address"
        }
      ],
      "name": "hasRole",
      "outputs": [
        {
          "internalType": "bool",
          "name": "",
          "type": "bool"
        }
      ],
      "stateMutability": "view",
      "type": "function"
    },
    {
      "inputs": [
        {
          "internalType": "address",
          "name": "spender",
          "type": "address"
        },
        {
          "internalType": "uint256",
          "name": "addedValue",
          "type": "uint256"
        }
      ],
      "name": "increaseAllowance",
      "outputs": [
        {
          "internalType": "bool",
          "name": "",
          "type": "bool"
        }
      ],
      "stateMutability": "nonpayable",
      "type": "function"
    },
    {
      "inputs": [
        {
          "internalType": "address",
          "name": "account",
          "type": "address"
        },
        {
          "internalType": "uint256",
          "name": "amount",
          "type": "uint256"
        }
      ],
      "name": "mint",
      "outputs": [],
      "stateMutability": "nonpayable",
      "type": "function"
    },
    {
      "inputs": [],
      "name": "name",
      "outputs": [
        {
          "internalType": "string",
          "name": "",
          "type": "string"
        }
      ],
      "stateMutability": "view",
      "type": "function"
    },
    {
      "inputs": [
        {
          "internalType": "bytes32",
          "name": "role",
          "type": "bytes32"
        },
        {
          "internalType": "address",
          "name": "account",
          "type": "address"
        }
      ],
      "name": "renounceRole",
      "outputs": [],
      "stateMutability": "nonpayable",
      "type": "function"
    },
    {
      "inputs": [
        {
          "internalType": "bytes32",
          "name": "role",
          "type": "bytes32"
        },
        {
          "internalType": "address",
          "name": "account",
          "type": "address"
        }
      ],
      "name": "revokeRole",
      "outputs": [],
      "stateMutability": "nonpayable",
      "type": "function"
    },
    {
      "inputs": [
        {
          "internalType": "bytes4",
          "name": "interfaceId",
          "type": "bytes4"
        }
      ],
      "name": "supportsInterface",
      "outputs": [
        {
          "internalType": "bool",
          "name": "",
          "type": "bool"
        }
      ],
      "stateMutability": "view",
      "type": "function"
    },
    {
      "inputs": [],
      "name": "symbol",
      "outputs": [
        {
          "internalType": "string",
          "name": "",
          "type": "string"
        }
      ],
      "stateMutability": "view",
      "type": "function"
    },
    {
      "inputs": [],
      "name": "totalSupply",
      "outputs": [
        {
          "internalType": "uint256",
          "name": "",
          "type": "uint256"
        }
      ],
      "stateMutability": "view",
      "type": "function"
    },
    {
      "inputs": [
        {
          "internalType": "address",
          "name": "to",
          "type": "address"
        },
        {
          "internalType": "uint256",
          "name": "amount",
          "type": "uint256"
        }
      ],
      "name": "transfer",
      "outputs": [
        {
          "internalType": "bool",
          "name": "",
          "type": "bool"
        }
      ],
      "stateMutability": "nonpayable",
      "type": "function"
    },
    {
      "inputs": [
        {
          "internalType": "address",
          "name": "from",
          "type": "address"
        },
        {
          "internalType": "address",
          "name": "to",
          "type": "address"
        },
        {
          "internalType": "uint256",
          "name": "amount",
          "type": "uint256"
        }
      ],
      "name": "transferFrom",
      "outputs": [
        {
          "internalType": "bool",
          "name": "",
          "type": "bool"
        }
      ],
      "stateMutability": "nonpayable",
      "type": "function"
    }
  ],
  "transactionHash": "0xf2a9a38fcc6a17ee4617b0d98974fbe5a7aa8dce5299a7e92dfe46cc43e81540",
  "args": [],
  "numDeployments": 2,
  "solcInputHash": "13405d76ed8620c25e8019839e5790a8",
  "bytecode": "0x60806040527f9f2df0fed2c77648de5860a4cc508cd0818c85b8b8a1ab4ceeef8d981c8956a66006553480156200003557600080fd5b506040518060400160405280600981526020017f4d65746153686f727400000000000000000000000000000000000000000000008152506040518060400160405280600581526020017f4d534852540000000000000000000000000000000000000000000000000000008152508160039080519060200190620000ba92919062000256565b508060049080519060200190620000d392919062000256565b505050620000eb6000801b33620000f160201b60201c565b6200036b565b620001038282620001e360201b60201c565b620001df5760016005600084815260200190815260200160002060000160008373ffffffffffffffffffffffffffffffffffffffff1673ffffffffffffffffffffffffffffffffffffffff16815260200190815260200160002060006101000a81548160ff021916908315150217905550620001846200024e60201b60201c565b73ffffffffffffffffffffffffffffffffffffffff168173ffffffffffffffffffffffffffffffffffffffff16837f2f8788117e7eff1d82e926ec794901d17c78024a50270940304540a733656f0d60405160405180910390a45b5050565b60006005600084815260200190815260200160002060000160008373ffffffffffffffffffffffffffffffffffffffff1673ffffffffffffffffffffffffffffffffffffffff16815260200190815260200160002060009054906101000a900460ff16905092915050565b600033905090565b828054620002649062000306565b90600052602060002090601f016020900481019282620002885760008555620002d4565b82601f10620002a357805160ff1916838001178555620002d4565b82800160010185558215620002d4579182015b82811115620002d3578251825591602001919060010190620002b6565b5b509050620002e39190620002e7565b5090565b5b8082111562000302576000816000905550600101620002e8565b5090565b600060028204905060018216806200031f57607f821691505b602082108114156200033657620003356200033c565b5b50919050565b7f4e487b7100000000000000000000000000000000000000000000000000000000600052602260045260246000fd5b61254b806200037b6000396000f3fe608060405234801561001057600080fd5b50600436106101425760003560e01c806342966c68116100b8578063a217fddf1161007c578063a217fddf1461039b578063a457c2d7146103b9578063a9059cbb146103e9578063d539139314610419578063d547741f14610437578063dd62ed3e1461045357610142565b806342966c68146102e557806370a082311461030157806379cc67901461033157806391d148541461034d57806395d89b411461037d57610142565b8063248a9ca31161010a578063248a9ca3146102135780632f2ff15d14610243578063313ce5671461025f57806336568abe1461027d578063395093511461029957806340c10f19146102c957610142565b806301ffc9a71461014757806306fdde0314610177578063095ea7b31461019557806318160ddd146101c557806323b872dd146101e3575b600080fd5b610161600480360381019061015c9190611967565b610483565b60405161016e9190611c83565b60405180910390f35b61017f6104fd565b60405161018c9190611cb9565b60405180910390f35b6101af60048036038101906101aa91906118c6565b61058f565b6040516101bc9190611c83565b60405180910390f35b6101cd6105b2565b6040516101da9190611e5b565b60405180910390f35b6101fd60048036038101906101f89190611877565b6105bc565b60405161020a9190611c83565b60405180910390f35b61022d60048036038101906102289190611902565b6105eb565b60405161023a9190611c9e565b60405180910390f35b61025d6004803603810190610258919061192b565b61060b565b005b61026761062c565b6040516102749190611e76565b60405180910390f35b6102976004803603810190610292919061192b565b610635565b005b6102b360048036038101906102ae91906118c6565b6106b8565b6040516102c09190611c83565b60405180910390f35b6102e360048036038101906102de91906118c6565b6106ef565b005b6102ff60048036038101906102fa9190611990565b6106fd565b005b61031b60048036038101906103169190611812565b610711565b6040516103289190611e5b565b60405180910390f35b61034b600480360381019061034691906118c6565b610759565b005b6103676004803603810190610362919061192b565b610779565b6040516103749190611c83565b60405180910390f35b6103856107e4565b6040516103929190611cb9565b60405180910390f35b6103a3610876565b6040516103b09190611c9e565b60405180910390f35b6103d360048036038101906103ce91906118c6565b61087d565b6040516103e09190611c83565b60405180910390f35b61040360048036038101906103fe91906118c6565b6108f4565b6040516104109190611c83565b60405180910390f35b610421610917565b60405161042e9190611c9e565b60405180910390f35b610451600480360381019061044c919061192b565b61091d565b005b61046d6004803603810190610468919061183b565b61093e565b60405161047a9190611e5b565b60405180910390f35b60007f7965db0b000000000000000000000000000000000000000000000000000000007bffffffffffffffffffffffffffffffffffffffffffffffffffffffff1916827bffffffffffffffffffffffffffffffffffffffffffffffffffffffff191614806104f657506104f5826109c5565b5b9050919050565b60606003805461050c90612084565b80601f016020809104026020016040519081016040528092919081815260200182805461053890612084565b80156105855780601f1061055a57610100808354040283529160200191610585565b820191906000526020600020905b81548152906001019060200180831161056857829003601f168201915b5050505050905090565b60008061059a610a2f565b90506105a7818585610a37565b600191505092915050565b6000600254905090565b6000806105c7610a2f565b90506105d4858285610c02565b6105df858585610c8e565b60019150509392505050565b600060056000838152602001908152602001600020600101549050919050565b610614826105eb565b61061d81610f0f565b6106278383610f23565b505050565b60006012905090565b61063d610a2f565b73ffffffffffffffffffffffffffffffffffffffff168173ffffffffffffffffffffffffffffffffffffffff16146106aa576040517f08c379a00000000000000000000000000000000000000000000000000000000081526004016106a190611e1b565b60405180910390fd5b6106b48282611004565b5050565b6000806106c3610a2f565b90506106e48185856106d5858961093e565b6106df9190611eb8565b610a37565b600191505092915050565b6106f982826110e6565b5050565b61070e610708610a2f565b82611246565b50565b60008060008373ffffffffffffffffffffffffffffffffffffffff1673ffffffffffffffffffffffffffffffffffffffff168152602001908152602001600020549050919050565b61076b82610765610a2f565b83610c02565b6107758282611246565b5050565b60006005600084815260200190815260200160002060000160008373ffffffffffffffffffffffffffffffffffffffff1673ffffffffffffffffffffffffffffffffffffffff16815260200190815260200160002060009054906101000a900460ff16905092915050565b6060600480546107f390612084565b80601f016020809104026020016040519081016040528092919081815260200182805461081f90612084565b801561086c5780601f106108415761010080835404028352916020019161086c565b820191906000526020600020905b81548152906001019060200180831161084f57829003601f168201915b5050505050905090565b6000801b81565b600080610888610a2f565b90506000610896828661093e565b9050838110156108db576040517f08c379a00000000000000000000000000000000000000000000000000000000081526004016108d290611dfb565b60405180910390fd5b6108e88286868403610a37565b60019250505092915050565b6000806108ff610a2f565b905061090c818585610c8e565b600191505092915050565b60065481565b610926826105eb565b61092f81610f0f565b6109398383611004565b505050565b6000600160008473ffffffffffffffffffffffffffffffffffffffff1673ffffffffffffffffffffffffffffffffffffffff16815260200190815260200160002060008373ffffffffffffffffffffffffffffffffffffffff1673ffffffffffffffffffffffffffffffffffffffff16815260200190815260200160002054905092915050565b60007f01ffc9a7000000000000000000000000000000000000000000000000000000007bffffffffffffffffffffffffffffffffffffffffffffffffffffffff1916827bffffffffffffffffffffffffffffffffffffffffffffffffffffffff1916149050919050565b600033905090565b600073ffffffffffffffffffffffffffffffffffffffff168373ffffffffffffffffffffffffffffffffffffffff161415610aa7576040517f08c379a0000000000000000000000000000000000000000000000000000000008152600401610a9e90611ddb565b60405180910390fd5b600073ffffffffffffffffffffffffffffffffffffffff168273ffffffffffffffffffffffffffffffffffffffff161415610b17576040517f08c379a0000000000000000000000000000000000000000000000000000000008152600401610b0e90611d3b565b60405180910390fd5b80600160008573ffffffffffffffffffffffffffffffffffffffff1673ffffffffffffffffffffffffffffffffffffffff16815260200190815260200160002060008473ffffffffffffffffffffffffffffffffffffffff1673ffffffffffffffffffffffffffffffffffffffff168152602001908152602001600020819055508173ffffffffffffffffffffffffffffffffffffffff168373ffffffffffffffffffffffffffffffffffffffff167f8c5be1e5ebec7d5bd14f71427d1e84f3dd0314c0f7b2291e5b200ac8c7c3b92583604051610bf59190611e5b565b60405180910390a3505050565b6000610c0e848461093e565b90507fffffffffffffffffffffffffffffffffffffffffffffffffffffffffffffffff8114610c885781811015610c7a576040517f08c379a0000000000000000000000000000000000000000000000000000000008152600401610c7190611d5b565b60405180910390fd5b610c878484848403610a37565b5b50505050565b600073ffffffffffffffffffffffffffffffffffffffff168373ffffffffffffffffffffffffffffffffffffffff161415610cfe576040517f08c379a0000000000000000000000000000000000000000000000000000000008152600401610cf590611dbb565b60405180910390fd5b600073ffffffffffffffffffffffffffffffffffffffff168273ffffffffffffffffffffffffffffffffffffffff161415610d6e576040517f08c379a0000000000000000000000000000000000000000000000000000000008152600401610d6590611cfb565b60405180910390fd5b610d7983838361141d565b60008060008573ffffffffffffffffffffffffffffffffffffffff1673ffffffffffffffffffffffffffffffffffffffff16815260200190815260200160002054905081811015610dff576040517f08c379a0000000000000000000000000000000000000000000000000000000008152600401610df690611d7b565b60405180910390fd5b8181036000808673ffffffffffffffffffffffffffffffffffffffff1673ffffffffffffffffffffffffffffffffffffffff16815260200190815260200160002081905550816000808573ffffffffffffffffffffffffffffffffffffffff1673ffffffffffffffffffffffffffffffffffffffff1681526020019081526020016000206000828254610e929190611eb8565b925050819055508273ffffffffffffffffffffffffffffffffffffffff168473ffffffffffffffffffffffffffffffffffffffff167fddf252ad1be2c89b69c2b068fc378daa952ba7f163c4a11628f55a4df523b3ef84604051610ef69190611e5b565b60405180910390a3610f09848484611422565b50505050565b610f2081610f1b610a2f565b611427565b50565b610f2d8282610779565b6110005760016005600084815260200190815260200160002060000160008373ffffffffffffffffffffffffffffffffffffffff1673ffffffffffffffffffffffffffffffffffffffff16815260200190815260200160002060006101000a81548160ff021916908315150217905550610fa5610a2f565b73ffffffffffffffffffffffffffffffffffffffff168173ffffffffffffffffffffffffffffffffffffffff16837f2f8788117e7eff1d82e926ec794901d17c78024a50270940304540a733656f0d60405160405180910390a45b5050565b61100e8282610779565b156110e25760006005600084815260200190815260200160002060000160008373ffffffffffffffffffffffffffffffffffffffff1673ffffffffffffffffffffffffffffffffffffffff16815260200190815260200160002060006101000a81548160ff021916908315150217905550611087610a2f565b73ffffffffffffffffffffffffffffffffffffffff168173ffffffffffffffffffffffffffffffffffffffff16837ff6391f5c32d9c69d2a47ea670b442974b53935d1edc7fd64eb21e047a839171b60405160405180910390a45b5050565b600073ffffffffffffffffffffffffffffffffffffffff168273ffffffffffffffffffffffffffffffffffffffff161415611156576040517f08c379a000000000000000000000000000000000000000000000000000000000815260040161114d90611e3b565b60405180910390fd5b6111626000838361141d565b80600260008282546111749190611eb8565b92505081905550806000808473ffffffffffffffffffffffffffffffffffffffff1673ffffffffffffffffffffffffffffffffffffffff16815260200190815260200160002060008282546111c99190611eb8565b925050819055508173ffffffffffffffffffffffffffffffffffffffff16600073ffffffffffffffffffffffffffffffffffffffff167fddf252ad1be2c89b69c2b068fc378daa952ba7f163c4a11628f55a4df523b3ef8360405161122e9190611e5b565b60405180910390a361124260008383611422565b5050565b600073ffffffffffffffffffffffffffffffffffffffff168273ffffffffffffffffffffffffffffffffffffffff1614156112b6576040517f08c379a00000000000000000000000000000000000000000000000000000000081526004016112ad90611d9b565b60405180910390fd5b6112c28260008361141d565b60008060008473ffffffffffffffffffffffffffffffffffffffff1673ffffffffffffffffffffffffffffffffffffffff16815260200190815260200160002054905081811015611348576040517f08c379a000000000000000000000000000000000000000000000000000000000815260040161133f90611d1b565b60405180910390fd5b8181036000808573ffffffffffffffffffffffffffffffffffffffff1673ffffffffffffffffffffffffffffffffffffffff16815260200190815260200160002081905550816002600082825461139f9190611f68565b92505081905550600073ffffffffffffffffffffffffffffffffffffffff168373ffffffffffffffffffffffffffffffffffffffff167fddf252ad1be2c89b69c2b068fc378daa952ba7f163c4a11628f55a4df523b3ef846040516114049190611e5b565b60405180910390a361141883600084611422565b505050565b505050565b505050565b6114318282610779565b6114c0576114568173ffffffffffffffffffffffffffffffffffffffff1660146114c4565b6114648360001c60206114c4565b604051602001611475929190611c49565b6040516020818303038152906040526040517f08c379a00000000000000000000000000000000000000000000000000000000081526004016114b79190611cb9565b60405180910390fd5b5050565b6060600060028360026114d79190611f0e565b6114e19190611eb8565b67ffffffffffffffff811115611520577f4e487b7100000000000000000000000000000000000000000000000000000000600052604160045260246000fd5b6040519080825280601f01601f1916602001820160405280156115525781602001600182028036833780820191505090505b5090507f3000000000000000000000000000000000000000000000000000000000000000816000815181106115b0577f4e487b7100000000000000000000000000000000000000000000000000000000600052603260045260246000fd5b60200101907effffffffffffffffffffffffffffffffffffffffffffffffffffffffffffff1916908160001a9053507f78000000000000000000000000000000000000000000000000000000000000008160018151811061163a577f4e487b7100000000000000000000000000000000000000000000000000000000600052603260045260246000fd5b60200101907effffffffffffffffffffffffffffffffffffffffffffffffffffffffffffff1916908160001a9053506000600184600261167a9190611f0e565b6116849190611eb8565b90505b6001811115611770577f3031323334353637383961626364656600000000000000000000000000000000600f8616601081106116ec577f4e487b7100000000000000000000000000000000000000000000000000000000600052603260045260246000fd5b1a60f81b828281518110611729577f4e487b7100000000000000000000000000000000000000000000000000000000600052603260045260246000fd5b60200101907effffffffffffffffffffffffffffffffffffffffffffffffffffffffffffff1916908160001a905350600485901c9450806117699061205a565b9050611687565b50600084146117b4576040517f08c379a00000000000000000000000000000000000000000000000000000000081526004016117ab90611cdb565b60405180910390fd5b8091505092915050565b6000813590506117cd816124b9565b92915050565b6000813590506117e2816124d0565b92915050565b6000813590506117f7816124e7565b92915050565b60008135905061180c816124fe565b92915050565b60006020828403121561182457600080fd5b6000611832848285016117be565b91505092915050565b6000806040838503121561184e57600080fd5b600061185c858286016117be565b925050602061186d858286016117be565b9150509250929050565b60008060006060848603121561188c57600080fd5b600061189a868287016117be565b93505060206118ab868287016117be565b92505060406118bc868287016117fd565b9150509250925092565b600080604083850312156118d957600080fd5b60006118e7858286016117be565b92505060206118f8858286016117fd565b9150509250929050565b60006020828403121561191457600080fd5b6000611922848285016117d3565b91505092915050565b6000806040838503121561193e57600080fd5b600061194c858286016117d3565b925050602061195d858286016117be565b9150509250929050565b60006020828403121561197957600080fd5b6000611987848285016117e8565b91505092915050565b6000602082840312156119a257600080fd5b60006119b0848285016117fd565b91505092915050565b6119c281611fae565b82525050565b6119d181611fba565b82525050565b60006119e282611e91565b6119ec8185611e9c565b93506119fc818560208601612027565b611a0581612114565b840191505092915050565b6000611a1b82611e91565b611a258185611ead565b9350611a35818560208601612027565b80840191505092915050565b6000611a4e602083611e9c565b9150611a5982612125565b602082019050919050565b6000611a71602383611e9c565b9150611a7c8261214e565b604082019050919050565b6000611a94602283611e9c565b9150611a9f8261219d565b604082019050919050565b6000611ab7602283611e9c565b9150611ac2826121ec565b604082019050919050565b6000611ada601d83611e9c565b9150611ae58261223b565b602082019050919050565b6000611afd602683611e9c565b9150611b0882612264565b604082019050919050565b6000611b20602183611e9c565b9150611b2b826122b3565b604082019050919050565b6000611b43602583611e9c565b9150611b4e82612302565b604082019050919050565b6000611b66602483611e9c565b9150611b7182612351565b604082019050919050565b6000611b89601783611ead565b9150611b94826123a0565b601782019050919050565b6000611bac602583611e9c565b9150611bb7826123c9565b604082019050919050565b6000611bcf601183611ead565b9150611bda82612418565b601182019050919050565b6000611bf2602f83611e9c565b9150611bfd82612441565b604082019050919050565b6000611c15601f83611e9c565b9150611c2082612490565b602082019050919050565b611c3481612010565b82525050565b611c438161201a565b82525050565b6000611c5482611b7c565b9150611c608285611a10565b9150611c6b82611bc2565b9150611c778284611a10565b91508190509392505050565b6000602082019050611c9860008301846119b9565b92915050565b6000602082019050611cb360008301846119c8565b92915050565b60006020820190508181036000830152611cd381846119d7565b905092915050565b60006020820190508181036000830152611cf481611a41565b9050919050565b60006020820190508181036000830152611d1481611a64565b9050919050565b60006020820190508181036000830152611d3481611a87565b9050919050565b60006020820190508181036000830152611d5481611aaa565b9050919050565b60006020820190508181036000830152611d7481611acd565b9050919050565b60006020820190508181036000830152611d9481611af0565b9050919050565b60006020820190508181036000830152611db481611b13565b9050919050565b60006020820190508181036000830152611dd481611b36565b9050919050565b60006020820190508181036000830152611df481611b59565b9050919050565b60006020820190508181036000830152611e1481611b9f565b9050919050565b60006020820190508181036000830152611e3481611be5565b9050919050565b60006020820190508181036000830152611e5481611c08565b9050919050565b6000602082019050611e706000830184611c2b565b92915050565b6000602082019050611e8b6000830184611c3a565b92915050565b600081519050919050565b600082825260208201905092915050565b600081905092915050565b6000611ec382612010565b9150611ece83612010565b9250827fffffffffffffffffffffffffffffffffffffffffffffffffffffffffffffffff03821115611f0357611f026120b6565b5b828201905092915050565b6000611f1982612010565b9150611f2483612010565b9250817fffffffffffffffffffffffffffffffffffffffffffffffffffffffffffffffff0483118215151615611f5d57611f5c6120b6565b5b828202905092915050565b6000611f7382612010565b9150611f7e83612010565b925082821015611f9157611f906120b6565b5b828203905092915050565b6000611fa782611ff0565b9050919050565b60008115159050919050565b6000819050919050565b60007fffffffff0000000000000000000000000000000000000000000000000000000082169050919050565b600073ffffffffffffffffffffffffffffffffffffffff82169050919050565b6000819050919050565b600060ff82169050919050565b60005b8381101561204557808201518184015260208101905061202a565b83811115612054576000848401525b50505050565b600061206582612010565b91506000821415612079576120786120b6565b5b600182039050919050565b6000600282049050600182168061209c57607f821691505b602082108114156120b0576120af6120e5565b5b50919050565b7f4e487b7100000000000000000000000000000000000000000000000000000000600052601160045260246000fd5b7f4e487b7100000000000000000000000000000000000000000000000000000000600052602260045260246000fd5b6000601f19601f8301169050919050565b7f537472696e67733a20686578206c656e67746820696e73756666696369656e74600082015250565b7f45524332303a207472616e7366657220746f20746865207a65726f206164647260008201527f6573730000000000000000000000000000000000000000000000000000000000602082015250565b7f45524332303a206275726e20616d6f756e7420657863656564732062616c616e60008201527f6365000000000000000000000000000000000000000000000000000000000000602082015250565b7f45524332303a20617070726f766520746f20746865207a65726f20616464726560008201527f7373000000000000000000000000000000000000000000000000000000000000602082015250565b7f45524332303a20696e73756666696369656e7420616c6c6f77616e6365000000600082015250565b7f45524332303a207472616e7366657220616d6f756e742065786365656473206260008201527f616c616e63650000000000000000000000000000000000000000000000000000602082015250565b7f45524332303a206275726e2066726f6d20746865207a65726f2061646472657360008201527f7300000000000000000000000000000000000000000000000000000000000000602082015250565b7f45524332303a207472616e736665722066726f6d20746865207a65726f20616460008201527f6472657373000000000000000000000000000000000000000000000000000000602082015250565b7f45524332303a20617070726f76652066726f6d20746865207a65726f2061646460008201527f7265737300000000000000000000000000000000000000000000000000000000602082015250565b7f416363657373436f6e74726f6c3a206163636f756e7420000000000000000000600082015250565b7f45524332303a2064656372656173656420616c6c6f77616e63652062656c6f7760008201527f207a65726f000000000000000000000000000000000000000000000000000000602082015250565b7f206973206d697373696e6720726f6c6520000000000000000000000000000000600082015250565b7f416363657373436f6e74726f6c3a2063616e206f6e6c792072656e6f756e636560008201527f20726f6c657320666f722073656c660000000000000000000000000000000000602082015250565b7f45524332303a206d696e7420746f20746865207a65726f206164647265737300600082015250565b6124c281611f9c565b81146124cd57600080fd5b50565b6124d981611fba565b81146124e457600080fd5b50565b6124f081611fc4565b81146124fb57600080fd5b50565b61250781612010565b811461251257600080fd5b5056fea2646970667358221220de4575d7fef3b8d485dee5afbbdce7d381775f5d7c4054c015cfebc5f4fed4d764736f6c63430008040033",
  "devdoc": {
    "kind": "dev",
    "methods": {
      "allowance(address,address)": {
        "details": "See {IERC20-allowance}."
      },
      "approve(address,uint256)": {
        "details": "See {IERC20-approve}. NOTE: If `amount` is the maximum `uint256`, the allowance is not updated on `transferFrom`. This is semantically equivalent to an infinite approval. Requirements: - `spender` cannot be the zero address."
      },
      "balanceOf(address)": {
        "details": "See {IERC20-balanceOf}."
      },
      "burn(uint256)": {
        "details": "Destroys `amount` tokens from the caller. See {ERC20-_burn}."
      },
      "burnFrom(address,uint256)": {
        "details": "Destroys `amount` tokens from `account`, deducting from the caller's allowance. See {ERC20-_burn} and {ERC20-allowance}. Requirements: - the caller must have allowance for ``accounts``'s tokens of at least `amount`."
      },
      "decimals()": {
        "details": "Returns the number of decimals used to get its user representation. For example, if `decimals` equals `2`, a balance of `505` tokens should be displayed to a user as `5.05` (`505 / 10 ** 2`). Tokens usually opt for a value of 18, imitating the relationship between Ether and Wei. This is the value {ERC20} uses, unless this function is overridden; NOTE: This information is only used for _display_ purposes: it in no way affects any of the arithmetic of the contract, including {IERC20-balanceOf} and {IERC20-transfer}."
      },
      "decreaseAllowance(address,uint256)": {
        "details": "Atomically decreases the allowance granted to `spender` by the caller. This is an alternative to {approve} that can be used as a mitigation for problems described in {IERC20-approve}. Emits an {Approval} event indicating the updated allowance. Requirements: - `spender` cannot be the zero address. - `spender` must have allowance for the caller of at least `subtractedValue`."
      },
      "getRoleAdmin(bytes32)": {
        "details": "Returns the admin role that controls `role`. See {grantRole} and {revokeRole}. To change a role's admin, use {_setRoleAdmin}."
      },
      "grantRole(bytes32,address)": {
        "details": "Grants `role` to `account`. If `account` had not been already granted `role`, emits a {RoleGranted} event. Requirements: - the caller must have ``role``'s admin role."
      },
      "hasRole(bytes32,address)": {
        "details": "Returns `true` if `account` has been granted `role`."
      },
      "increaseAllowance(address,uint256)": {
        "details": "Atomically increases the allowance granted to `spender` by the caller. This is an alternative to {approve} that can be used as a mitigation for problems described in {IERC20-approve}. Emits an {Approval} event indicating the updated allowance. Requirements: - `spender` cannot be the zero address."
      },
      "name()": {
        "details": "Returns the name of the token."
      },
      "renounceRole(bytes32,address)": {
        "details": "Revokes `role` from the calling account. Roles are often managed via {grantRole} and {revokeRole}: this function's purpose is to provide a mechanism for accounts to lose their privileges if they are compromised (such as when a trusted device is misplaced). If the calling account had been revoked `role`, emits a {RoleRevoked} event. Requirements: - the caller must be `account`."
      },
      "revokeRole(bytes32,address)": {
        "details": "Revokes `role` from `account`. If `account` had been granted `role`, emits a {RoleRevoked} event. Requirements: - the caller must have ``role``'s admin role."
      },
      "supportsInterface(bytes4)": {
        "details": "See {IERC165-supportsInterface}."
      },
      "symbol()": {
        "details": "Returns the symbol of the token, usually a shorter version of the name."
      },
      "totalSupply()": {
        "details": "See {IERC20-totalSupply}."
      },
      "transfer(address,uint256)": {
        "details": "See {IERC20-transfer}. Requirements: - `to` cannot be the zero address. - the caller must have a balance of at least `amount`."
      },
      "transferFrom(address,address,uint256)": {
        "details": "See {IERC20-transferFrom}. Emits an {Approval} event indicating the updated allowance. This is not required by the EIP. See the note at the beginning of {ERC20}. NOTE: Does not update the allowance if the current allowance is the maximum `uint256`. Requirements: - `from` and `to` cannot be the zero address. - `from` must have a balance of at least `amount`. - the caller must have allowance for ``from``'s tokens of at least `amount`."
      }
    },
    "version": 1
  },
  "userdoc": {
    "kind": "user",
    "methods": {},
    "version": 1
  },
  "storageLayout": {
    "storage": [
      {
        "astId": 408,
        "contract": "contracts/MetaShort.sol:MetaShort",
        "label": "_balances",
        "offset": 0,
        "slot": "0",
        "type": "t_mapping(t_address,t_uint256)"
      },
      {
        "astId": 414,
        "contract": "contracts/MetaShort.sol:MetaShort",
        "label": "_allowances",
        "offset": 0,
        "slot": "1",
        "type": "t_mapping(t_address,t_mapping(t_address,t_uint256))"
      },
      {
        "astId": 416,
        "contract": "contracts/MetaShort.sol:MetaShort",
        "label": "_totalSupply",
        "offset": 0,
        "slot": "2",
        "type": "t_uint256"
      },
      {
        "astId": 418,
        "contract": "contracts/MetaShort.sol:MetaShort",
        "label": "_name",
        "offset": 0,
        "slot": "3",
        "type": "t_string_storage"
      },
      {
        "astId": 420,
        "contract": "contracts/MetaShort.sol:MetaShort",
        "label": "_symbol",
        "offset": 0,
        "slot": "4",
        "type": "t_string_storage"
      },
      {
        "astId": 24,
        "contract": "contracts/MetaShort.sol:MetaShort",
        "label": "_roles",
        "offset": 0,
        "slot": "5",
        "type": "t_mapping(t_bytes32,t_struct(RoleData)19_storage)"
      },
      {
        "astId": 1468,
        "contract": "contracts/MetaShort.sol:MetaShort",
        "label": "MINTER_ROLE",
        "offset": 0,
        "slot": "6",
        "type": "t_bytes32"
      }
    ],
    "types": {
      "t_address": {
        "encoding": "inplace",
        "label": "address",
        "numberOfBytes": "20"
      },
      "t_bool": {
        "encoding": "inplace",
        "label": "bool",
        "numberOfBytes": "1"
      },
      "t_bytes32": {
        "encoding": "inplace",
        "label": "bytes32",
        "numberOfBytes": "32"
      },
      "t_mapping(t_address,t_bool)": {
        "encoding": "mapping",
        "key": "t_address",
        "label": "mapping(address => bool)",
        "numberOfBytes": "32",
        "value": "t_bool"
      },
      "t_mapping(t_address,t_mapping(t_address,t_uint256))": {
        "encoding": "mapping",
        "key": "t_address",
        "label": "mapping(address => mapping(address => uint256))",
        "numberOfBytes": "32",
        "value": "t_mapping(t_address,t_uint256)"
      },
      "t_mapping(t_address,t_uint256)": {
        "encoding": "mapping",
        "key": "t_address",
        "label": "mapping(address => uint256)",
        "numberOfBytes": "32",
        "value": "t_uint256"
      },
      "t_mapping(t_bytes32,t_struct(RoleData)19_storage)": {
        "encoding": "mapping",
        "key": "t_bytes32",
        "label": "mapping(bytes32 => struct AccessControl.RoleData)",
        "numberOfBytes": "32",
        "value": "t_struct(RoleData)19_storage"
      },
      "t_string_storage": {
        "encoding": "bytes",
        "label": "string",
        "numberOfBytes": "32"
      },
      "t_struct(RoleData)19_storage": {
        "encoding": "inplace",
        "label": "struct AccessControl.RoleData",
        "members": [
          {
            "astId": 16,
            "contract": "contracts/MetaShort.sol:MetaShort",
            "label": "members",
            "offset": 0,
            "slot": "0",
            "type": "t_mapping(t_address,t_bool)"
          },
          {
            "astId": 18,
            "contract": "contracts/MetaShort.sol:MetaShort",
            "label": "adminRole",
            "offset": 0,
            "slot": "1",
            "type": "t_bytes32"
          }
        ],
        "numberOfBytes": "64"
      },
      "t_uint256": {
        "encoding": "inplace",
        "label": "uint256",
        "numberOfBytes": "32"
      }
    }
  }
}