{
  "address": "0xfF040D08986e72FCd13F3AA8D376b7Eb67b893FF",
  "abi": [
    {
      "inputs": [
        {
          "internalType": "address",
          "name": "metaShort",
          "type": "address"
        }
      ],
      "stateMutability": "nonpayable",
      "type": "constructor"
    },
    {
      "anonymous": false,
      "inputs": [
        {
          "indexed": false,
          "internalType": "uint256",
          "name": "id",
          "type": "uint256"
        },
        {
          "indexed": false,
          "internalType": "uint256",
          "name": "desiredReactions",
          "type": "uint256"
        },
        {
          "indexed": false,
          "internalType": "uint256",
          "name": "desiredComments",
          "type": "uint256"
        },
        {
          "indexed": false,
          "internalType": "uint256",
          "name": "thresholdReactions",
          "type": "uint256"
        },
        {
          "indexed": false,
          "internalType": "uint256",
          "name": "thresholdComments",
          "type": "uint256"
        },
        {
          "indexed": false,
          "internalType": "uint256",
          "name": "until",
          "type": "uint256"
        },
        {
          "indexed": false,
          "internalType": "uint256",
          "name": "tips",
          "type": "uint256"
        },
        {
          "indexed": false,
          "internalType": "uint256",
          "name": "totalCalculatedPrice",
          "type": "uint256"
        },
        {
          "indexed": false,
          "internalType": "address",
          "name": "advertiser",
          "type": "address"
        }
      ],
      "name": "AdvertisementPublished",
      "type": "event"
    },
    {
      "anonymous": false,
      "inputs": [
        {
          "indexed": true,
          "internalType": "bytes32",
          "name": "role",
          "type": "bytes32"
        },
        {
          "indexed": true,
          "internalType": "bytes32",
          "name": "previousAdminRole",
          "type": "bytes32"
        },
        {
          "indexed": true,
          "internalType": "bytes32",
          "name": "newAdminRole",
          "type": "bytes32"
        }
      ],
      "name": "RoleAdminChanged",
      "type": "event"
    },
    {
      "anonymous": false,
      "inputs": [
        {
          "indexed": true,
          "internalType": "bytes32",
          "name": "role",
          "type": "bytes32"
        },
        {
          "indexed": true,
          "internalType": "address",
          "name": "account",
          "type": "address"
        },
        {
          "indexed": true,
          "internalType": "address",
          "name": "sender",
          "type": "address"
        }
      ],
      "name": "RoleGranted",
      "type": "event"
    },
    {
      "anonymous": false,
      "inputs": [
        {
          "indexed": true,
          "internalType": "bytes32",
          "name": "role",
          "type": "bytes32"
        },
        {
          "indexed": true,
          "internalType": "address",
          "name": "account",
          "type": "address"
        },
        {
          "indexed": true,
          "internalType": "address",
          "name": "sender",
          "type": "address"
        }
      ],
      "name": "RoleRevoked",
      "type": "event"
    },
    {
      "inputs": [],
      "name": "DEFAULT_ADMIN_ROLE",
      "outputs": [
        {
          "internalType": "bytes32",
          "name": "",
          "type": "bytes32"
        }
      ],
      "stateMutability": "view",
      "type": "function"
    },
    {
      "inputs": [
        {
          "internalType": "uint256",
          "name": "id",
          "type": "uint256"
        }
      ],
      "name": "getAdvertisement",
      "outputs": [
        {
          "components": [
            {
              "internalType": "uint256",
              "name": "desiredReactions",
              "type": "uint256"
            },
            {
              "internalType": "uint256",
              "name": "desiredComments",
              "type": "uint256"
            },
            {
              "internalType": "uint256",
              "name": "thresholdReactions",
              "type": "uint256"
            },
            {
              "internalType": "uint256",
              "name": "thresholdComments",
              "type": "uint256"
            },
            {
              "internalType": "uint256",
              "name": "tips",
              "type": "uint256"
            },
            {
              "internalType": "uint256",
              "name": "totalCalculatedPrice",
              "type": "uint256"
            },
            {
              "internalType": "uint256",
              "name": "until",
              "type": "uint256"
            },
            {
              "internalType": "uint256",
              "name": "status",
              "type": "uint256"
            },
            {
              "internalType": "uint256",
              "name": "actualReactions",
              "type": "uint256"
            },
            {
              "internalType": "uint256",
              "name": "actualComments",
              "type": "uint256"
            },
            {
              "internalType": "address",
              "name": "advertiser",
              "type": "address"
            }
          ],
          "internalType": "struct MetaShortGovernance.Advertisement",
          "name": "",
          "type": "tuple"
        }
      ],
      "stateMutability": "view",
      "type": "function"
    },
    {
      "inputs": [
        {
          "internalType": "address",
          "name": "blogger",
          "type": "address"
        }
      ],
      "name": "getCurrentActiveAdvertisement",
      "outputs": [
        {
          "internalType": "uint256",
          "name": "",
          "type": "uint256"
        }
      ],
      "stateMutability": "view",
      "type": "function"
    },
    {
      "inputs": [
        {
          "internalType": "bytes32",
          "name": "role",
          "type": "bytes32"
        }
      ],
      "name": "getRoleAdmin",
      "outputs": [
        {
          "internalType": "bytes32",
          "name": "",
          "type": "bytes32"
        }
      ],
      "stateMutability": "view",
      "type": "function"
    },
    {
      "inputs": [
        {
          "internalType": "bytes32",
          "name": "role",
          "type": "bytes32"
        },
        {
          "internalType": "address",
          "name": "account",
          "type": "address"
        }
      ],
      "name": "grantRole",
      "outputs": [],
      "stateMutability": "nonpayable",
      "type": "function"
    },
    {
      "inputs": [
        {
          "internalType": "bytes32",
          "name": "role",
          "type": "bytes32"
        },
        {
          "internalType": "address",
          "name": "account",
          "type": "address"
        }
      ],
      "name": "hasRole",
      "outputs": [
        {
          "internalType": "bool",
          "name": "",
          "type": "bool"
        }
      ],
      "stateMutability": "view",
      "type": "function"
    },
    {
      "inputs": [
        {
          "internalType": "uint256",
          "name": "desiredReactions",
          "type": "uint256"
        },
        {
          "internalType": "uint256",
          "name": "desiredComments",
          "type": "uint256"
        },
        {
          "internalType": "uint256",
          "name": "thresholdReactions",
          "type": "uint256"
        },
        {
          "internalType": "uint256",
          "name": "thresholdComments",
          "type": "uint256"
        },
        {
          "internalType": "uint256",
          "name": "until",
          "type": "uint256"
        },
        {
          "internalType": "uint256",
          "name": "tips",
          "type": "uint256"
        }
      ],
      "name": "publishAdvertisement",
      "outputs": [],
      "stateMutability": "nonpayable",
      "type": "function"
    },
    {
      "inputs": [
        {
          "internalType": "address",
          "name": "advertiser",
          "type": "address"
        }
      ],
      "name": "registerAdvertiser",
      "outputs": [],
      "stateMutability": "nonpayable",
      "type": "function"
    },
    {
      "inputs": [
        {
          "internalType": "address",
          "name": "blogger",
          "type": "address"
        }
      ],
      "name": "registerBlogger",
      "outputs": [],
      "stateMutability": "nonpayable",
      "type": "function"
    },
    {
      "inputs": [
        {
          "internalType": "bytes32",
          "name": "role",
          "type": "bytes32"
        },
        {
          "internalType": "address",
          "name": "account",
          "type": "address"
        }
      ],
      "name": "renounceRole",
      "outputs": [],
      "stateMutability": "nonpayable",
      "type": "function"
    },
    {
      "inputs": [
        {
          "internalType": "uint256",
          "name": "advertisementId",
          "type": "uint256"
        }
      ],
      "name": "requireRewardForAdvertisement",
      "outputs": [],
      "stateMutability": "nonpayable",
      "type": "function"
    },
    {
      "inputs": [
        {
          "internalType": "bytes32",
          "name": "role",
          "type": "bytes32"
        },
        {
          "internalType": "address",
          "name": "account",
          "type": "address"
        }
      ],
      "name": "revokeRole",
      "outputs": [],
      "stateMutability": "nonpayable",
      "type": "function"
    },
    {
      "inputs": [
        {
          "internalType": "uint256",
          "name": "advertisementId",
          "type": "uint256"
        },
        {
          "internalType": "uint256",
          "name": "reactions",
          "type": "uint256"
        },
        {
          "internalType": "uint256",
          "name": "comments",
          "type": "uint256"
        }
      ],
      "name": "sendActivity",
      "outputs": [],
      "stateMutability": "nonpayable",
      "type": "function"
    },
    {
      "inputs": [
        {
          "internalType": "uint256",
          "name": "advertisementId",
          "type": "uint256"
        }
      ],
      "name": "submitAdvertisement",
      "outputs": [],
      "stateMutability": "nonpayable",
      "type": "function"
    },
    {
      "inputs": [
        {
          "internalType": "bytes4",
          "name": "interfaceId",
          "type": "bytes4"
        }
      ],
      "name": "supportsInterface",
      "outputs": [
        {
          "internalType": "bool",
          "name": "",
          "type": "bool"
        }
      ],
      "stateMutability": "view",
      "type": "function"
    },
    {
      "inputs": [],
      "name": "token",
      "outputs": [
        {
          "internalType": "contract MetaShort",
          "name": "",
          "type": "address"
        }
      ],
      "stateMutability": "view",
      "type": "function"
    }
  ],
  "transactionHash": "0x226be324730b80a0ee07f49b099a91d9c8aec91b3aa0cb6ff0c8585b9d202ac7",
  "args": [
    "0x86Deb2c5De9DF0cfA393357b381E90bEd590C2c6"
  ],
  "numDeployments": 2,
  "solcInputHash": "13405d76ed8620c25e8019839e5790a8",
  "bytecode": "0x60806040527fae8a96feb7fa1c6eb9c1e5eab8f95f300b7a12b0ec1cf03c4c1752196e6e7b616002557f26e71ca4ebbe2ad7a241ad6ee71933b9dc517e7e17183658d1481a0e529332b9600355600a60055560326006556000600755600160085560026009553480156200007257600080fd5b5060405162002cc138038062002cc18339818101604052810190620000989190620003b7565b80600460006101000a81548173ffffffffffffffffffffffffffffffffffffffff021916908373ffffffffffffffffffffffffffffffffffffffff160217905550620000ee6000801b336200023d60201b60201c565b600a60405180610160016040528060008152602001600081526020016000815260200160008152602001600081526020016000815260200160008152602001600081526020016000815260200160008152602001600073ffffffffffffffffffffffffffffffffffffffff1681525090806001815401808255809150506001900390600052602060002090600b0201600090919091909150600082015181600001556020820151816001015560408201518160020155606082015181600301556080820151816004015560a0820151816005015560c0820151816006015560e082015181600701556101008201518160080155610120820151816009015561014082015181600a0160006101000a81548173ffffffffffffffffffffffffffffffffffffffff021916908373ffffffffffffffffffffffffffffffffffffffff16021790555050505062000431565b6200024f82826200032e60201b60201c565b6200032a57600160008084815260200190815260200160002060000160008373ffffffffffffffffffffffffffffffffffffffff1673ffffffffffffffffffffffffffffffffffffffff16815260200190815260200160002060006101000a81548160ff021916908315150217905550620002cf6200039860201b60201c565b73ffffffffffffffffffffffffffffffffffffffff168173ffffffffffffffffffffffffffffffffffffffff16837f2f8788117e7eff1d82e926ec794901d17c78024a50270940304540a733656f0d60405160405180910390a45b5050565b600080600084815260200190815260200160002060000160008373ffffffffffffffffffffffffffffffffffffffff1673ffffffffffffffffffffffffffffffffffffffff16815260200190815260200160002060009054906101000a900460ff16905092915050565b600033905090565b600081519050620003b18162000417565b92915050565b600060208284031215620003ca57600080fd5b6000620003da84828501620003a0565b91505092915050565b6000620003f082620003f7565b9050919050565b600073ffffffffffffffffffffffffffffffffffffffff82169050919050565b6200042281620003e3565b81146200042e57600080fd5b50565b61288080620004416000396000f3fe608060405234801561001057600080fd5b50600436106101005760003560e01c80634e3bc21111610097578063d547741f11610066578063d547741f146102bb578063e3569f3f146102d7578063ea17e4eb146102f3578063fc0c546a1461030f57610100565b80634e3bc2111461023557806391d1485414610251578063a217fddf14610281578063d1cdf7861461029f57610100565b80632ec65a48116100d35780632ec65a48146101c55780632f2ff15d146101e157806336568abe146101fd57806346b760e11461021957610100565b806301ffc9a7146101055780630f990f1914610135578063248a9ca314610165578063278f344614610195575b600080fd5b61011f600480360381019061011a9190611b7c565b61032d565b60405161012c91906120bb565b60405180910390f35b61014f600480360381019061014a9190611ba5565b6103a7565b60405161015c919061228e565b60405180910390f35b61017f600480360381019061017a9190611b17565b6104c4565b60405161018c91906120d6565b60405180910390f35b6101af60048036038101906101aa9190611ac5565b6104e3565b6040516101bc91906122aa565b60405180910390f35b6101df60048036038101906101da9190611ac5565b61052c565b005b6101fb60048036038101906101f69190611b40565b610587565b005b61021760048036038101906102129190611b40565b6105a8565b005b610233600480360381019061022e9190611ba5565b61062b565b005b61024f600480360381019061024a9190611ac5565b6108f7565b005b61026b60048036038101906102669190611b40565b610952565b60405161027891906120bb565b60405180910390f35b6102896109bc565b60405161029691906120d6565b60405180910390f35b6102b960048036038101906102b49190611c1d565b6109c3565b005b6102d560048036038101906102d09190611b40565b610ca3565b005b6102f160048036038101906102ec9190611bce565b610cc4565b005b61030d60048036038101906103089190611ba5565b610e68565b005b6103176113e8565b60405161032491906120f1565b60405180910390f35b60007f7965db0b000000000000000000000000000000000000000000000000000000007bffffffffffffffffffffffffffffffffffffffffffffffffffffffff1916827bffffffffffffffffffffffffffffffffffffffffffffffffffffffff191614806103a0575061039f8261140e565b5b9050919050565b6103af6119ec565b600a82815481106103e9577f4e487b7100000000000000000000000000000000000000000000000000000000600052603260045260246000fd5b90600052602060002090600b02016040518061016001604052908160008201548152602001600182015481526020016002820154815260200160038201548152602001600482015481526020016005820154815260200160068201548152602001600782015481526020016008820154815260200160098201548152602001600a820160009054906101000a900473ffffffffffffffffffffffffffffffffffffffff1673ffffffffffffffffffffffffffffffffffffffff1673ffffffffffffffffffffffffffffffffffffffff16815250509050919050565b6000806000838152602001908152602001600020600101549050919050565b6000600160008373ffffffffffffffffffffffffffffffffffffffff1673ffffffffffffffffffffffffffffffffffffffff168152602001908152602001600020549050919050565b6105396000801b33610952565b610578576040517f08c379a000000000000000000000000000000000000000000000000000000000815260040161056f906121ce565b60405180910390fd5b61058460035482610587565b50565b610590826104c4565b61059981611478565b6105a3838361148c565b505050565b6105b061156c565b73ffffffffffffffffffffffffffffffffffffffff168173ffffffffffffffffffffffffffffffffffffffff161461061d576040517f08c379a00000000000000000000000000000000000000000000000000000000081526004016106149061226e565b60405180910390fd5b6106278282611574565b5050565b61063760035433610952565b610676576040517f08c379a000000000000000000000000000000000000000000000000000000000815260040161066d9061216e565b60405180910390fd5b600854600a82815481106106b3577f4e487b7100000000000000000000000000000000000000000000000000000000600052603260045260246000fd5b90600052602060002090600b02016007015414610705576040517f08c379a00000000000000000000000000000000000000000000000000000000081526004016106fc9061224e565b60405180910390fd5b6000600a8281548110610741577f4e487b7100000000000000000000000000000000000000000000000000000000600052603260045260246000fd5b90600052602060002090600b020160040154600a838154811061078d577f4e487b7100000000000000000000000000000000000000000000000000000000600052603260045260246000fd5b90600052602060002090600b0201600501546107a99190612429565b9050600460009054906101000a900473ffffffffffffffffffffffffffffffffffffffff1673ffffffffffffffffffffffffffffffffffffffff166323b872dd3330846040518463ffffffff1660e01b815260040161080a9392919061205b565b602060405180830381600087803b15801561082457600080fd5b505af1158015610838573d6000803e3d6000fd5b505050506040513d601f19601f8201168201806040525081019061085c9190611aee565b5081600160003373ffffffffffffffffffffffffffffffffffffffff1673ffffffffffffffffffffffffffffffffffffffff16815260200190815260200160002081905550600954600a83815481106108de577f4e487b7100000000000000000000000000000000000000000000000000000000600052603260045260246000fd5b90600052602060002090600b0201600701819055505050565b6109046000801b33610952565b610943576040517f08c379a000000000000000000000000000000000000000000000000000000000815260040161093a906121ce565b60405180910390fd5b61094f60025482610587565b50565b600080600084815260200190815260200160002060000160008373ffffffffffffffffffffffffffffffffffffffff1673ffffffffffffffffffffffffffffffffffffffff16815260200190815260200160002060009054906101000a900460ff16905092915050565b6000801b81565b6109cf60025433610952565b610a0e576040517f08c379a0000000000000000000000000000000000000000000000000000000008152600401610a059061220e565b60405180910390fd5b600060055487610a1e91906123cf565b60065487610a2c91906123cf565b610a369190612379565b905060008183610a469190612379565b905060006040518061016001604052808a8152602001898152602001888152602001878152602001858152602001868152602001838152602001600854815260200160008152602001600081526020013373ffffffffffffffffffffffffffffffffffffffff168152509050600460009054906101000a900473ffffffffffffffffffffffffffffffffffffffff1673ffffffffffffffffffffffffffffffffffffffff166323b872dd3330856040518463ffffffff1660e01b8152600401610b119392919061205b565b602060405180830381600087803b158015610b2b57600080fd5b505af1158015610b3f573d6000803e3d6000fd5b505050506040513d601f19601f82011682018060405250810190610b639190611aee565b50600a8190806001815401808255809150506001900390600052602060002090600b0201600090919091909150600082015181600001556020820151816001015560408201518160020155606082015181600301556080820151816004015560a0820151816005015560c0820151816006015560e082015181600701556101008201518160080155610120820151816009015561014082015181600a0160006101000a81548173ffffffffffffffffffffffffffffffffffffffff021916908373ffffffffffffffffffffffffffffffffffffffff16021790555050507f075601f141bb5ec781af018758df1fc9201e940014004e64c230f54a77f686ba6001600a80549050610c739190612429565b8a8a8a8a8a8a8933604051610c90999897969594939291906122c5565b60405180910390a1505050505050505050565b610cac826104c4565b610cb581611478565b610cbf8383611574565b505050565b610cd16000801b33610952565b610d10576040517f08c379a0000000000000000000000000000000000000000000000000000000008152600401610d079061212e565b60405180910390fd5b600954600a8481548110610d4d577f4e487b7100000000000000000000000000000000000000000000000000000000600052603260045260246000fd5b90600052602060002090600b02016007015414610d9f576040517f08c379a0000000000000000000000000000000000000000000000000000000008152600401610d96906121ee565b60405180910390fd5b80600a8481548110610dda577f4e487b7100000000000000000000000000000000000000000000000000000000600052603260045260246000fd5b90600052602060002090600b02016009016000828254610dfa9190612379565b9250508190555081600a8481548110610e3c577f4e487b7100000000000000000000000000000000000000000000000000000000600052603260045260246000fd5b90600052602060002090600b02016008016000828254610e5c9190612379565b92505081905550505050565b610e7460035433610952565b610eb3576040517f08c379a0000000000000000000000000000000000000000000000000000000008152600401610eaa9061216e565b60405180910390fd5b600954600a8281548110610ef0577f4e487b7100000000000000000000000000000000000000000000000000000000600052603260045260246000fd5b90600052602060002090600b02016007015414610f42576040517f08c379a0000000000000000000000000000000000000000000000000000000008152600401610f399061222e565b60405180910390fd5b80600160003373ffffffffffffffffffffffffffffffffffffffff1673ffffffffffffffffffffffffffffffffffffffff1681526020019081526020016000205414610fc3576040517f08c379a0000000000000000000000000000000000000000000000000000000008152600401610fba9061218e565b60405180910390fd5b600a8181548110610ffd577f4e487b7100000000000000000000000000000000000000000000000000000000600052603260045260246000fd5b90600052602060002090600b0201600601544211611050576040517f08c379a0000000000000000000000000000000000000000000000000000000008152600401611047906121ae565b60405180910390fd5b6000600a828154811061108c577f4e487b7100000000000000000000000000000000000000000000000000000000600052603260045260246000fd5b90600052602060002090600b02016040518061016001604052908160008201548152602001600182015481526020016002820154815260200160038201548152602001600482015481526020016005820154815260200160068201548152602001600782015481526020016008820154815260200160098201548152602001600a820160009054906101000a900473ffffffffffffffffffffffffffffffffffffffff1673ffffffffffffffffffffffffffffffffffffffff1673ffffffffffffffffffffffffffffffffffffffff168152505090508060600151816101200151108061118157508060400151816101000151105b1561124457600460009054906101000a900473ffffffffffffffffffffffffffffffffffffffff1673ffffffffffffffffffffffffffffffffffffffff1663a9059cbb8261014001518360a001516040518363ffffffff1660e01b81526004016111ec929190612092565b602060405180830381600087803b15801561120657600080fd5b505af115801561121a573d6000803e3d6000fd5b505050506040513d601f19601f8201168201806040525081019061123e9190611aee565b5061139f565b600081608001518260a0015161125a9190612429565b9050600460009054906101000a900473ffffffffffffffffffffffffffffffffffffffff1673ffffffffffffffffffffffffffffffffffffffff166342966c68826040518263ffffffff1660e01b81526004016112b791906122aa565b600060405180830381600087803b1580156112d157600080fd5b505af11580156112e5573d6000803e3d6000fd5b50505050600460009054906101000a900473ffffffffffffffffffffffffffffffffffffffff1673ffffffffffffffffffffffffffffffffffffffff1663a9059cbb338460a001516040518363ffffffff1660e01b815260040161134a929190612092565b602060405180830381600087803b15801561136457600080fd5b505af1158015611378573d6000803e3d6000fd5b505050506040513d601f19601f8201168201806040525081019061139c9190611aee565b50505b6000600160003373ffffffffffffffffffffffffffffffffffffffff1673ffffffffffffffffffffffffffffffffffffffff168152602001908152602001600020819055505050565b600460009054906101000a900473ffffffffffffffffffffffffffffffffffffffff1681565b60007f01ffc9a7000000000000000000000000000000000000000000000000000000007bffffffffffffffffffffffffffffffffffffffffffffffffffffffff1916827bffffffffffffffffffffffffffffffffffffffffffffffffffffffff1916149050919050565b6114898161148461156c565b611655565b50565b6114968282610952565b61156857600160008084815260200190815260200160002060000160008373ffffffffffffffffffffffffffffffffffffffff1673ffffffffffffffffffffffffffffffffffffffff16815260200190815260200160002060006101000a81548160ff02191690831515021790555061150d61156c565b73ffffffffffffffffffffffffffffffffffffffff168173ffffffffffffffffffffffffffffffffffffffff16837f2f8788117e7eff1d82e926ec794901d17c78024a50270940304540a733656f0d60405160405180910390a45b5050565b600033905090565b61157e8282610952565b1561165157600080600084815260200190815260200160002060000160008373ffffffffffffffffffffffffffffffffffffffff1673ffffffffffffffffffffffffffffffffffffffff16815260200190815260200160002060006101000a81548160ff0219169083151502179055506115f661156c565b73ffffffffffffffffffffffffffffffffffffffff168173ffffffffffffffffffffffffffffffffffffffff16837ff6391f5c32d9c69d2a47ea670b442974b53935d1edc7fd64eb21e047a839171b60405160405180910390a45b5050565b61165f8282610952565b6116ee576116848173ffffffffffffffffffffffffffffffffffffffff1660146116f2565b6116928360001c60206116f2565b6040516020016116a3929190612021565b6040516020818303038152906040526040517f08c379a00000000000000000000000000000000000000000000000000000000081526004016116e5919061210c565b60405180910390fd5b5050565b60606000600283600261170591906123cf565b61170f9190612379565b67ffffffffffffffff81111561174e577f4e487b7100000000000000000000000000000000000000000000000000000000600052604160045260246000fd5b6040519080825280601f01601f1916602001820160405280156117805781602001600182028036833780820191505090505b5090507f3000000000000000000000000000000000000000000000000000000000000000816000815181106117de577f4e487b7100000000000000000000000000000000000000000000000000000000600052603260045260246000fd5b60200101907effffffffffffffffffffffffffffffffffffffffffffffffffffffffffffff1916908160001a9053507f780000000000000000000000000000000000000000000000000000000000000081600181518110611868577f4e487b7100000000000000000000000000000000000000000000000000000000600052603260045260246000fd5b60200101907effffffffffffffffffffffffffffffffffffffffffffffffffffffffffffff1916908160001a905350600060018460026118a891906123cf565b6118b29190612379565b90505b600181111561199e577f3031323334353637383961626364656600000000000000000000000000000000600f86166010811061191a577f4e487b7100000000000000000000000000000000000000000000000000000000600052603260045260246000fd5b1a60f81b828281518110611957577f4e487b7100000000000000000000000000000000000000000000000000000000600052603260045260246000fd5b60200101907effffffffffffffffffffffffffffffffffffffffffffffffffffffffffffff1916908160001a905350600485901c94508061199790612532565b90506118b5565b50600084146119e2576040517f08c379a00000000000000000000000000000000000000000000000000000000081526004016119d99061214e565b60405180910390fd5b8091505092915050565b60405180610160016040528060008152602001600081526020016000815260200160008152602001600081526020016000815260200160008152602001600081526020016000815260200160008152602001600073ffffffffffffffffffffffffffffffffffffffff1681525090565b600081359050611a6b816127d7565b92915050565b600081519050611a80816127ee565b92915050565b600081359050611a9581612805565b92915050565b600081359050611aaa8161281c565b92915050565b600081359050611abf81612833565b92915050565b600060208284031215611ad757600080fd5b6000611ae584828501611a5c565b91505092915050565b600060208284031215611b0057600080fd5b6000611b0e84828501611a71565b91505092915050565b600060208284031215611b2957600080fd5b6000611b3784828501611a86565b91505092915050565b60008060408385031215611b5357600080fd5b6000611b6185828601611a86565b9250506020611b7285828601611a5c565b9150509250929050565b600060208284031215611b8e57600080fd5b6000611b9c84828501611a9b565b91505092915050565b600060208284031215611bb757600080fd5b6000611bc584828501611ab0565b91505092915050565b600080600060608486031215611be357600080fd5b6000611bf186828701611ab0565b9350506020611c0286828701611ab0565b9250506040611c1386828701611ab0565b9150509250925092565b60008060008060008060c08789031215611c3657600080fd5b6000611c4489828a01611ab0565b9650506020611c5589828a01611ab0565b9550506040611c6689828a01611ab0565b9450506060611c7789828a01611ab0565b9350506080611c8889828a01611ab0565b92505060a0611c9989828a01611ab0565b9150509295509295509295565b611caf8161245d565b82525050565b611cbe8161245d565b82525050565b611ccd8161246f565b82525050565b611cdc8161247b565b82525050565b611ceb816124db565b82525050565b6000611cfc82612352565b611d06818561235d565b9350611d168185602086016124ff565b611d1f8161258b565b840191505092915050565b6000611d3582612352565b611d3f818561236e565b9350611d4f8185602086016124ff565b80840191505092915050565b6000611d68600f8361235d565b9150611d738261259c565b602082019050919050565b6000611d8b60208361235d565b9150611d96826125c5565b602082019050919050565b6000611dae60158361235d565b9150611db9826125ee565b602082019050919050565b6000611dd1601d8361235d565b9150611ddc82612617565b602082019050919050565b6000611df4601a8361235d565b9150611dff82612640565b602082019050919050565b6000611e17600f8361235d565b9150611e2282612669565b602082019050919050565b6000611e3a60178361236e565b9150611e4582612692565b601782019050919050565b6000611e5d60138361235d565b9150611e68826126bb565b602082019050919050565b6000611e8060188361235d565b9150611e8b826126e4565b602082019050919050565b6000611ea3601d8361235d565b9150611eae8261270d565b602082019050919050565b6000611ec6601e8361235d565b9150611ed182612736565b602082019050919050565b6000611ee960118361236e565b9150611ef48261275f565b601182019050919050565b6000611f0c602f8361235d565b9150611f1782612788565b604082019050919050565b61016082016000820151611f396000850182612003565b506020820151611f4c6020850182612003565b506040820151611f5f6040850182612003565b506060820151611f726060850182612003565b506080820151611f856080850182612003565b5060a0820151611f9860a0850182612003565b5060c0820151611fab60c0850182612003565b5060e0820151611fbe60e0850182612003565b50610100820151611fd3610100850182612003565b50610120820151611fe8610120850182612003565b50610140820151611ffd610140850182611ca6565b50505050565b61200c816124d1565b82525050565b61201b816124d1565b82525050565b600061202c82611e2d565b91506120388285611d2a565b915061204382611edc565b915061204f8284611d2a565b91508190509392505050565b60006060820190506120706000830186611cb5565b61207d6020830185611cb5565b61208a6040830184612012565b949350505050565b60006040820190506120a76000830185611cb5565b6120b46020830184612012565b9392505050565b60006020820190506120d06000830184611cc4565b92915050565b60006020820190506120eb6000830184611cd3565b92915050565b60006020820190506121066000830184611ce2565b92915050565b600060208201905081810360008301526121268184611cf1565b905092915050565b6000602082019050818103600083015261214781611d5b565b9050919050565b6000602082019050818103600083015261216781611d7e565b9050919050565b6000602082019050818103600083015261218781611da1565b9050919050565b600060208201905081810360008301526121a781611dc4565b9050919050565b600060208201905081810360008301526121c781611de7565b9050919050565b600060208201905081810360008301526121e781611e0a565b9050919050565b6000602082019050818103600083015261220781611e50565b9050919050565b6000602082019050818103600083015261222781611e73565b9050919050565b6000602082019050818103600083015261224781611e96565b9050919050565b6000602082019050818103600083015261226781611eb9565b9050919050565b6000602082019050818103600083015261228781611eff565b9050919050565b6000610160820190506122a46000830184611f22565b92915050565b60006020820190506122bf6000830184612012565b92915050565b6000610120820190506122db600083018c612012565b6122e8602083018b612012565b6122f5604083018a612012565b6123026060830189612012565b61230f6080830188612012565b61231c60a0830187612012565b61232960c0830186612012565b61233660e0830185612012565b612344610100830184611cb5565b9a9950505050505050505050565b600081519050919050565b600082825260208201905092915050565b600081905092915050565b6000612384826124d1565b915061238f836124d1565b9250827fffffffffffffffffffffffffffffffffffffffffffffffffffffffffffffffff038211156123c4576123c361255c565b5b828201905092915050565b60006123da826124d1565b91506123e5836124d1565b9250817fffffffffffffffffffffffffffffffffffffffffffffffffffffffffffffffff048311821515161561241e5761241d61255c565b5b828202905092915050565b6000612434826124d1565b915061243f836124d1565b9250828210156124525761245161255c565b5b828203905092915050565b6000612468826124b1565b9050919050565b60008115159050919050565b6000819050919050565b60007fffffffff0000000000000000000000000000000000000000000000000000000082169050919050565b600073ffffffffffffffffffffffffffffffffffffffff82169050919050565b6000819050919050565b60006124e6826124ed565b9050919050565b60006124f8826124b1565b9050919050565b60005b8381101561251d578082015181840152602081019050612502565b8381111561252c576000848401525b50505050565b600061253d826124d1565b915060008214156125515761255061255c565b5b600182039050919050565b7f4e487b7100000000000000000000000000000000000000000000000000000000600052601160045260246000fd5b6000601f19601f8301169050919050565b7f73686f756c642062652061646d696e0000000000000000000000000000000000600082015250565b7f537472696e67733a20686578206c656e67746820696e73756666696369656e74600082015250565b7f796f752073686f756c6420626520626c6f676765720000000000000000000000600082015250565b7f6164766572746973656d656e742073686f756c6420626520796f757273000000600082015250565b7f61647665726973656d656e742073686f756c642066696e697368000000000000600082015250565b7f53686f756c642062652061646d696e0000000000000000000000000000000000600082015250565b7f416363657373436f6e74726f6c3a206163636f756e7420000000000000000000600082015250565b7f73686f756c642062652074616b656e2061647600000000000000000000000000600082015250565b7f596f752073686f756c6420626520616476657274697365720000000000000000600082015250565b7f6164766572746973656d656e742073686f756c642062652074616b656e000000600082015250565b7f6164766572746973656d656e742073686f756c64206265206163746976650000600082015250565b7f206973206d697373696e6720726f6c6520000000000000000000000000000000600082015250565b7f416363657373436f6e74726f6c3a2063616e206f6e6c792072656e6f756e636560008201527f20726f6c657320666f722073656c660000000000000000000000000000000000602082015250565b6127e08161245d565b81146127eb57600080fd5b50565b6127f78161246f565b811461280257600080fd5b50565b61280e8161247b565b811461281957600080fd5b50565b61282581612485565b811461283057600080fd5b50565b61283c816124d1565b811461284757600080fd5b5056fea2646970667358221220440c3e3d929f048d03bd569a265043ffac51b733ac953015eabd6d3a6f3b77d364736f6c63430008040033",
  "devdoc": {
    "kind": "dev",
    "methods": {
      "getRoleAdmin(bytes32)": {
        "details": "Returns the admin role that controls `role`. See {grantRole} and {revokeRole}. To change a role's admin, use {_setRoleAdmin}."
      },
      "grantRole(bytes32,address)": {
        "details": "Grants `role` to `account`. If `account` had not been already granted `role`, emits a {RoleGranted} event. Requirements: - the caller must have ``role``'s admin role."
      },
      "hasRole(bytes32,address)": {
        "details": "Returns `true` if `account` has been granted `role`."
      },
      "renounceRole(bytes32,address)": {
        "details": "Revokes `role` from the calling account. Roles are often managed via {grantRole} and {revokeRole}: this function's purpose is to provide a mechanism for accounts to lose their privileges if they are compromised (such as when a trusted device is misplaced). If the calling account had been revoked `role`, emits a {RoleRevoked} event. Requirements: - the caller must be `account`."
      },
      "revokeRole(bytes32,address)": {
        "details": "Revokes `role` from `account`. If `account` had been granted `role`, emits a {RoleRevoked} event. Requirements: - the caller must have ``role``'s admin role."
      },
      "supportsInterface(bytes4)": {
        "details": "See {IERC165-supportsInterface}."
      }
    },
    "version": 1
  },
  "userdoc": {
    "kind": "user",
    "methods": {},
    "version": 1
  },
  "storageLayout": {
    "storage": [
      {
        "astId": 24,
        "contract": "contracts/MetaShortGovernance.sol:MetaShortGovernance",
        "label": "_roles",
        "offset": 0,
        "slot": "0",
        "type": "t_mapping(t_bytes32,t_struct(RoleData)19_storage)"
      },
      {
        "astId": 1549,
        "contract": "contracts/MetaShortGovernance.sol:MetaShortGovernance",
        "label": "bloggersCurrentAdvertisement",
        "offset": 0,
        "slot": "1",
        "type": "t_mapping(t_address,t_uint256)"
      },
      {
        "astId": 1554,
        "contract": "contracts/MetaShortGovernance.sol:MetaShortGovernance",
        "label": "ADVERTISER_ROLE",
        "offset": 0,
        "slot": "2",
        "type": "t_bytes32"
      },
      {
        "astId": 1559,
        "contract": "contracts/MetaShortGovernance.sol:MetaShortGovernance",
        "label": "BLOGGER_ROLE",
        "offset": 0,
        "slot": "3",
        "type": "t_bytes32"
      },
      {
        "astId": 1562,
        "contract": "contracts/MetaShortGovernance.sol:MetaShortGovernance",
        "label": "token",
        "offset": 0,
        "slot": "4",
        "type": "t_contract(MetaShort)1496"
      },
      {
        "astId": 1565,
        "contract": "contracts/MetaShortGovernance.sol:MetaShortGovernance",
        "label": "TOKENS_PER_REACTION",
        "offset": 0,
        "slot": "5",
        "type": "t_uint256"
      },
      {
        "astId": 1568,
        "contract": "contracts/MetaShortGovernance.sol:MetaShortGovernance",
        "label": "TOKENS_PER_COMMENT",
        "offset": 0,
        "slot": "6",
        "type": "t_uint256"
      },
      {
        "astId": 1571,
        "contract": "contracts/MetaShortGovernance.sol:MetaShortGovernance",
        "label": "STATUS_ADVERTISEMENT_INACTIVE",
        "offset": 0,
        "slot": "7",
        "type": "t_uint256"
      },
      {
        "astId": 1574,
        "contract": "contracts/MetaShortGovernance.sol:MetaShortGovernance",
        "label": "STATUS_ADVERTISEMENT_ACTIVE",
        "offset": 0,
        "slot": "8",
        "type": "t_uint256"
      },
      {
        "astId": 1577,
        "contract": "contracts/MetaShortGovernance.sol:MetaShortGovernance",
        "label": "STATUS_ADVERTISEMENT_TAKEN",
        "offset": 0,
        "slot": "9",
        "type": "t_uint256"
      },
      {
        "astId": 1581,
        "contract": "contracts/MetaShortGovernance.sol:MetaShortGovernance",
        "label": "advertisements",
        "offset": 0,
        "slot": "10",
        "type": "t_array(t_struct(Advertisement)1525_storage)dyn_storage"
      }
    ],
    "types": {
      "t_address": {
        "encoding": "inplace",
        "label": "address",
        "numberOfBytes": "20"
      },
      "t_array(t_struct(Advertisement)1525_storage)dyn_storage": {
        "base": "t_struct(Advertisement)1525_storage",
        "encoding": "dynamic_array",
        "label": "struct MetaShortGovernance.Advertisement[]",
        "numberOfBytes": "32"
      },
      "t_bool": {
        "encoding": "inplace",
        "label": "bool",
        "numberOfBytes": "1"
      },
      "t_bytes32": {
        "encoding": "inplace",
        "label": "bytes32",
        "numberOfBytes": "32"
      },
      "t_contract(MetaShort)1496": {
        "encoding": "inplace",
        "label": "contract MetaShort",
        "numberOfBytes": "20"
      },
      "t_mapping(t_address,t_bool)": {
        "encoding": "mapping",
        "key": "t_address",
        "label": "mapping(address => bool)",
        "numberOfBytes": "32",
        "value": "t_bool"
      },
      "t_mapping(t_address,t_uint256)": {
        "encoding": "mapping",
        "key": "t_address",
        "label": "mapping(address => uint256)",
        "numberOfBytes": "32",
        "value": "t_uint256"
      },
      "t_mapping(t_bytes32,t_struct(RoleData)19_storage)": {
        "encoding": "mapping",
        "key": "t_bytes32",
        "label": "mapping(bytes32 => struct AccessControl.RoleData)",
        "numberOfBytes": "32",
        "value": "t_struct(RoleData)19_storage"
      },
      "t_struct(Advertisement)1525_storage": {
        "encoding": "inplace",
        "label": "struct MetaShortGovernance.Advertisement",
        "members": [
          {
            "astId": 1504,
            "contract": "contracts/MetaShortGovernance.sol:MetaShortGovernance",
            "label": "desiredReactions",
            "offset": 0,
            "slot": "0",
            "type": "t_uint256"
          },
          {
            "astId": 1506,
            "contract": "contracts/MetaShortGovernance.sol:MetaShortGovernance",
            "label": "desiredComments",
            "offset": 0,
            "slot": "1",
            "type": "t_uint256"
          },
          {
            "astId": 1508,
            "contract": "contracts/MetaShortGovernance.sol:MetaShortGovernance",
            "label": "thresholdReactions",
            "offset": 0,
            "slot": "2",
            "type": "t_uint256"
          },
          {
            "astId": 1510,
            "contract": "contracts/MetaShortGovernance.sol:MetaShortGovernance",
            "label": "thresholdComments",
            "offset": 0,
            "slot": "3",
            "type": "t_uint256"
          },
          {
            "astId": 1512,
            "contract": "contracts/MetaShortGovernance.sol:MetaShortGovernance",
            "label": "tips",
            "offset": 0,
            "slot": "4",
            "type": "t_uint256"
          },
          {
            "astId": 1514,
            "contract": "contracts/MetaShortGovernance.sol:MetaShortGovernance",
            "label": "totalCalculatedPrice",
            "offset": 0,
            "slot": "5",
            "type": "t_uint256"
          },
          {
            "astId": 1516,
            "contract": "contracts/MetaShortGovernance.sol:MetaShortGovernance",
            "label": "until",
            "offset": 0,
            "slot": "6",
            "type": "t_uint256"
          },
          {
            "astId": 1518,
            "contract": "contracts/MetaShortGovernance.sol:MetaShortGovernance",
            "label": "status",
            "offset": 0,
            "slot": "7",
            "type": "t_uint256"
          },
          {
            "astId": 1520,
            "contract": "contracts/MetaShortGovernance.sol:MetaShortGovernance",
            "label": "actualReactions",
            "offset": 0,
            "slot": "8",
            "type": "t_uint256"
          },
          {
            "astId": 1522,
            "contract": "contracts/MetaShortGovernance.sol:MetaShortGovernance",
            "label": "actualComments",
            "offset": 0,
            "slot": "9",
            "type": "t_uint256"
          },
          {
            "astId": 1524,
            "contract": "contracts/MetaShortGovernance.sol:MetaShortGovernance",
            "label": "advertiser",
            "offset": 0,
            "slot": "10",
            "type": "t_address"
          }
        ],
        "numberOfBytes": "352"
      },
      "t_struct(RoleData)19_storage": {
        "encoding": "inplace",
        "label": "struct AccessControl.RoleData",
        "members": [
          {
            "astId": 16,
            "contract": "contracts/MetaShortGovernance.sol:MetaShortGovernance",
            "label": "members",
            "offset": 0,
            "slot": "0",
            "type": "t_mapping(t_address,t_bool)"
          },
          {
            "astId": 18,
            "contract": "contracts/MetaShortGovernance.sol:MetaShortGovernance",
            "label": "adminRole",
            "offset": 0,
            "slot": "1",
            "type": "t_bytes32"
          }
        ],
        "numberOfBytes": "64"
      },
      "t_uint256": {
        "encoding": "inplace",
        "label": "uint256",
        "numberOfBytes": "32"
      }
    }
  }
}